:020000040000FA
:100000000201E8AB07AA061205DF8F828E83120574
:10001000DFC3EF9582FFEE9583FEC3EF9BEE9A4020
:02002000ED22CF
:0700230002053875A640221A
:07002B000202DD43981022E0
:1000330002015175A20B43A14053F8F343F8012287
:10004300020076EF540FC454F0FEEF54F0C4540F83
:100053004EFF543325E025E0FEEF54CC1313543FF9
:0F0063004EFF545525E0FEEF54AAC3134EFF2263
:10007300020657C0D075D000C007AFA7D20575A739
:10008300108FA7D007D0D0320206CB8F2F8D308BA5
:1000930031AB32AA33A93412038E7003020150F537
:1000A30035C3648094A04009D3E535648094FE4051
:1000B30003753520E530D394784002807CAF35EF6B
:1000C3003395E0FE75F064E531A42FF582E5F03E4B
:1000D300F583E58224AEF582E583340EF583E4935C
:1000E300F9E530131313541F252FFDF8C000E6FA6A
:1000F30008E6FBE5305407FCE47EFFA8040880050E
:10010300CEC313CE13D8F9F4FFEEF45AFEEB5FD04F
:1001130000A60608F6A805C000E6FA08E6FBE9FE15
:10012300E4A804088005CEC313CE13D8F9FFEA4E22
:10013300FEEB4FD000A60608F674012534F534E42F
:100143003533F53374062530F53002009422C0E0D0
:10015300C0F0C083C082C0D075D000C000C001C051
:1001630002C003C004C005C006C00775A720E5F898
:1001730054F0F4440F52F8AF9BEF30E34DE54A607F
:1001830031E5A120E02C300113854E82854D83E5B6
:10019300A3F0054EE54E7007054D800385A326D5D4
:1001A3004A0D300305300002D2FA12061F80038580
:1001B3004A4CE54B601430F911300209A84FE2F5BF
:1001C300A3054F800375A300154BD007D006D005B8
:1001D300D004D003D002D001D000D0D0D082D083BD
:1001E300D0F0D0E032787FE4F6D8FD758165020265
:1001F3002F020457E493A3F8E493A34003F680018A
:10020300F208DFF48029E493A3F85407240CC8C34D
:1002130033C4540F4420C8834004F456800146F687
:10022300DFE4800B01020408102040809004D0E436
:100233007E019360BCA3FF543F30E509541FFEE4E5
:1002430093A360010ECF54C025E060A840B8E493A7
:10025300A3FAE493A3F8E493A3C8C582C8CAC583E9
:10026300CAF0A3C8C582C8CAC583CADFE9DEE7806E
:10027300BE8D2C8B298A2A892B1205648F2EE4F5D7
:100283002DE52D900D0E93FF7456252DF8A6070529
:100293002DE52DB410EBE4F52D7F567B707D101208
:1002A30005AAC007C37480952EFFE49400C313EF1F
:1002B30013FD852932852A33852B34D007AB2D12C4
:1002C300008EE52D252CFF7B007A0079561203D48E
:1002D300052DE52DC3940840C022C0E0C0F0C083C3
:1002E300C082C0D075D000C000C001C002C003C02E
:1002F30004C005C006C00753C87F53C8FBE552B40A
:1003030001127552027F008553257B02E4FDFC1226
:10031300033C800AE552B40305C2A6755200D00718
:10032300D006D005D004D003D002D001D000D0D065
:10033300D082D083D0F0D0E03285254A85254B8505
:10034300254C8F4F8C4D8D4EEB139201EBA2E19216
:1003530002AFA775A720200403120646439A04534D
:10036300F80F539BEF439A08300305300002C2FA9B
:1003730030F915E54B6011300209A84FE2F5A305EA
:100383004F8003E4F5A3154B8FA722BB0106898297
:100393008A83E0225002E722BBFE02E32289828A9B
:1003A30083E49322BB010CE58229F582E5833AF5C8
:1003B30083E0225006E92582F8E622BBFE06E92502
:1003C30082F8E222E58229F582E5833AF583E49314
:1003D300228F2F8B308A3189327F801205898F33A8
:1003E300E52F04FF1200468F34E4FFAB30AA31A996
:1003F300328F827583001203A7FE74352FF8A60689
:100403000FBF10E7E4F545F546FB7A0079337D1419
:100413000204168B478A488949E55270FC755201DC
:100423008D53E4FFEFC39D5018AB47AA48A9498FEA
:10043300827583001203A7FE74002FF8EEF20F807B
:10044300E3AFA7E4F5A775CFFF75CEF4D2A643C8F3
:10045300048FA722752705E4F52812050412066701
:10046300C2A2C294D2AFE509B4131AE4F528740BFF
:100473002528F8E4F60528E528B414F2740A25279C
:10048300F527E4F5097B007A00790BAD2712027496
:1004930080D48F2A8D2BE52B6005752BFF8003E419
:1004A300F52B7F801205898F2CE52A04FF12004665
:1004B3008F2DE4FF742E2FF8A62B0FBF10F6E4F553
:1004C3003EF53FFB7A00792C7D140204160250009E
:1004D3000001520001530002540000C100C103C1D6
:1004E30004C101C102014A00014B00014C00014F4C
:1004F30000024D0000010A00010900010800C105C6
:100503000085A7291206821206A01206BD12002634
:100513001206C41206961206B41206331206AA1263
:1005230005C61205F512067512003612002E1206C4
:100533008C8529A722C0E0C0D075D000C000C007B9
:10054300D294309813C298E509C39414500AAF09A2
:10055300740B2FF8A6990509D007D000D0D0D0E0AE
:10056300328B2F8A308931E4FFAB2FAA30A931AE09
:10057300070F8E827583001203A770ED1FEF75F0CE
:1005830006A42402FF228F471205DFC3EF9551FD16
:10059300EE9550FCD3ED94C8EC94004007434740DC
:1005A3008E508F51AF4722ED131313541FFEEB13DD
:1005B3001313541FFDEEC39D5008EF2EF8E4F60EFF
:1005C30080EC22E59154045391FB7595F8759406DC
:1005D3007593F8759206439104429122AFA775A7CC
:1005E3001053E67FAD55AC5443E6808FA7AE04AFFE
:1005F300052275A710E59854045398FB75A5FE755D
:10060300A468439804429822E4F529E4FDAF291233
:1006130004950529E529C3948040F022755203AF60
:10062300A7E4F5A775CFFF75CEFC43C8048FA722B7
:10063300AF885388AF758D96EF5440FEEF54104E3C
:10064300428822E5A1A2E69203E5F8540C24FF9226
:1006530000D20422C0E053917F0555E55570020591
:1006630054D0E032C2A6D2B47F0A7E001200030245
:10067300060BE4F5A7758E0C75892043885022E498
:10068300F5A77597DE7597AD2275E68275F3047548
:10069300A8F022E4F5A775E34075E1032275A450A1
:1006A30075D40F75FE0422E5C8540453C8FB42C831
:1006B30022E4F5A9E5A930E7FB2275A50375D5FE6C
:1006C3002275A720759C1022C29F320000000000F3
:1006D30000000000000000000000007FFFFFFFFF9C
:1006E300FFFFFFFFFFFFFFFFFFFFFE4000000000D3
:1006F30000000000000000000000024000000000B5
:1007030000000000000000000000024000000000A4
:100713000000000000000000000002400000000094
:100723000000000000000000000002400000000084
:100733000000000000000000000002400000000074
:100743000000000000000000000002400000000064
:100753000000000000000000000002400000000054
:100763000000000000000000000002400000000044
:100773000000000000000000000002400000000034
:10078300000080000000001800000240000000008C
:1007930000080007FFE00006000002400000000020
:1007A30000C0007FFFFE0003800002400000000045
:1007B300070003FFFFFF0003E0000240000000000A
:1007C30038001FFFFFFF8003E0000240000000012C
:1007D300E0003FFFFFFF8003F00002400000000F36
:1007E3008000FFFFFFFF8007F80002400000003E8B
:1007F3000001FFFFFFFE001FF8000240000000FCA5
:100803000003FFFFFFFF80FFF8000240000003F832
:100813000007FFFFFFFFFFFFF8000240000007F0A3
:100823000007FFF8003FFFFFF800024000001FF041
:100833000007F00000007FFFF800024000003FF0D7
:100843000003C00000000FFFF000024000007FF033
:100853000001F000000003FFE00002400000FFF889
:1008630000007FFF800001FFC00002400001FFFC89
:100873000000027FF00000FF800002400003FFFF42
:10088300000000003C0000FF000002400007FFFFE3
:10089300E0000000FE0000FE000002400007FFFF32
:1008A300FF8001FFFE0000F8000002400007FFFF89
:1008B300FFFFFFFFFE0001F0000002400007FFF80A
:1008C3007FFFFFFFFE0003C0000002400007FFE0C0
:1008D30007FFFFFFFC000700000002400007FF8046
:1008E3000FFFFFFFF0001C00000002400003FF00A9
:1008F3001FFFFFFFE0006000000002400003FE0056
:100903000FFFFFFF80010000000002400001FC0018
:1009130007FFFFFC000000000000024000007C0015
:1009230001FFFFC0000000000000024000001E00A5
:10093300000BE00000000000000002400000078000
:100943000000000000000000000002400000006002
:100953000000000000000000000002400000000052
:100963000000000000000000000002400000000042
:100973000000000000000000000002400000000032
:100983000000000000000000000002400007C21049
:1009930021F1F888008060F8F8000240000442105A
:1009A300211108C8008060888800024000040210FA
:1009B300210108C8008090888000024000070210CF
:1009C300210108E800809088E00002400001C21085
:1009D300210108A8008090F838000240000042106E
:1009E300210108B8008090880800024000004210EE
:1009F300210108980081F888080002400004421091
:100A03002111089800810888880002400007C21F4E
:100A130021F1F88800F908F8F8000240000000000E
:100A23000000000000000000000002400000000081
:100A33000000000000000000000002400000000071
:100A43000000000000000000000002400000000061
:100A53000000000000000000000002400000000051
:100A63000000000000000000000002400000000041
:100A73000000000000000000000002400000000031
:100A83000000000000000000000002400000000021
:100A93000000000000000000000002400000000011
:100AA3000000000000000000000002400000000001
:100AB30000000000000000000000024000000000F1
:100AC30000000000000000000000024000000000E1
:100AD30000000000000000000000024000000000D1
:100AE30000000000000000000000024000000000C1
:100AF30000000000000000000000024000000000B1
:100B030000000000000000000000024000000000A0
:100B13000000000000000000000002400000000090
:100B23000000000000000000000002400000000080
:100B33000000000000000000000002407FFFFFFFF4
:100B4300FFFFFFFFFFFFFFFFFFFC0240400000002D
:100B5300000000000000000000040240400000000C
:100B630000000000000000000004024040000000FC
:100B730000000000000000000004024040000000EC
:100B830000000000000000000004024040000000DC
:100B930000000000000000000004024040000000CC
:100BA30000000000000000000004024040000000BC
:100BB30000000000000000000004024040000000AC
:100BC300000000000000000000040240400000009C
:100BD300000000000000000000040240400000008C
:100BE300000000000000000000040240400000007C
:100BF300000000000000000000040240400000006C
:100C0300000000000000000000040240400000005B
:100C1300000000000000000000040240400000004B
:100C2300000000000000000000040240400000003B
:100C3300000000000000000000040240400000002B
:100C4300000000000000000000040240400000001B
:100C5300000000000000000000040240400000000B
:100C630000000000000000000004024040000000FB
:100C730000000000000000000004024040000000EB
:100C830000000000000000000004024040000000DB
:100C930000000000000000000004024040000000CB
:100CA30000000000000000000004024040000000BB
:100CB30000000000000000000004024040000000AB
:100CC300000000000000000000040240400000009B
:100CD300000000000000000000040240400000008B
:100CE300000000000000000000040240400000007B
:100CF300000000000000000000040240400000006B
:100D0300000000000000000000040240400000005A
:100D1300000000000000000000040240400000004A
:100D2300000000000000000000040240400000003A
:100D3300000000000000000000040240400000002A
:100D4300000000000000000000040240400000001A
:100D5300000000000000000000040240400000000A
:100D630000000000000000000004024040000000FA
:100D730000000000000000000004024040000000EA
:100D830000000000000000000004024040000000DA
:100D930000000000000000000004024040000000CA
:100DA30000000000000000000004024040000000BA
:100DB30000000000000000000004024040000000AA
:100DC300000000000000000000040240400000009A
:100DD300000000000000000000040240400000008A
:100DE300000000000000000000040240400000007A
:100DF300000000000000000000040240400000006A
:100E03000000000000000000000402404000000059
:100E13000000000000000000000402407FFFFFFF0D
:100E2300FFFFFFFFFFFFFFFFFFFC0240000000008A
:100E3300000000000000000000000240000000006D
:100E4300000000000000000000000240000000005D
:100E5300000000000000000000000240000000004D
:100E6300000000000000000000000240000000003D
:100E7300000000000000000000000240000000002D
:100E8300000000000000000000000240000000001D
:100E9300000000000000000000000240000000000D
:100EA30000000000000000000000027FFFFFFFFFC2
:100EB300FFFFFFFFFFFFFFFFFFFFFE00000000003B
:100EC300000000000000000000000000205050203F
:100ED300C060601040000000000000702070F81037
:100EE300F830F870700000080080707070F070E0E7
:100EF300F8F8708870388880888870F070F078F817
:100F03008888888888F87000702000400080000876
:100F130000300080201080600000000000000040CE
:100F2300000000000000302060000000000000000E
:100F330020505078C89020202020200000000088F6
:100F430060881030804008888860601000408808FE
:100F5300888888908080888820109080D8888888A6
:100F6300888880208888888888084000105000205E
:100F73000080000800487880000080200000000006
:100F8300000000400000000000004020104000006E
:100F9300000000002050F88010A0404010A820005E
:100FA3000000089820082050F08010888860602096
:100FB300F820080888888088808080882010A08096
:100FC300A8C88888888880208888885088104080AE
:100FD3001088001070B07068704088B06030902046
:100FE300D0B070F068B070E08888888888F84020B6
:100FF30010A80000000000002000507020400040B6
:101003001070F800F80010A82010109008F020705D
:10101300780000400010106888F08088F0F0B8F87D
:101023002010C080A8A888F088F070208888A820A5
:10103300502040401000000008C8809888E088C80D
:101043002010A020A8C8888898C880408888885025
:101053008810802008100000000000000000F8083D
:1010630040A8004010A82060000020C8202008F8F5
:101073000888408808606020F82020A8F8888088C5
:10108300808088882010A08088988880A8A0082065
:101093008888A8502040402010000000788880886D
:1010A300F84078882010C020A88888F078807040A5
:1010B3008888A8207820402010000000000000004D
:1010C300000050F0989000202020202000604088ED
:1010D300204088108888408810602010004000A8B5
:1010E30088888890808088882090908088888880ED
:1010F300909008208850A88820804010100000009D
:1011030088888888804008882090A02088888880E4
:10111300088008489850A85008404020100000005C
:10112300000000002000502018680010400000401C
:101133000060807070F8701070704070600040083C
:101143000080207088F070E0F8807088706088F804
:10115300888870806888F0207020508820F8700894
:101163007000FC0078F07078704070887060907048
:10117300888870800880F0306820508870F83020AC
:1011830060000000000000000000000000000000FC
:10119300000000000000000000000000000000004C
:1011A300000000000000000000000000000000003C
:1011B300000000000000000000000000000000002C
:1011C300000000000000000000000000000000001C
:1011D300000000000000000000000000000000000C
:0B11E300000000000000000000000001
:00000001FF
