:020000040000FA
:10000000020003787FE4F6D8FD75812002004A02E1
:10001000008FE493A3F8E493A34003F68001F20871
:10002000DFF48029E493A3F85407240CC8C333C435
:10003000540F4420C8834004F456800146F6DFE4A0
:10004000800B01020408102040809001AFE47E0183
:100050009360BCA3FF543F30E509541FFEE493A313
:1000600060010ECF54C025E060A840B8E493A3FA25
:10007000E493A3F8E493A3C8C582C8CAC583CAF0B1
:10008000A3C8C582C8CAC583CADFE9DEE780BED27D
:1000900094C295C296AF0CAE0B120143C2B47F005E
:1000A0002082027F01EF700C7F002083027F01EF2E
:1000B0007002C200208225200022D200050CE50C2F
:1000C0007002050BC294C295C296D39405E50B64E9
:1000D00080948040BAE4F50BF50C80B32083BF20F8
:1000E00000BCD200E50C150C7002150BC294C29531
:1000F000C296C3E50B648094805094750B00750C18
:1001000005808CEE703CEF14601614601A14601EAB
:1001100014602214602624057028E4F5A9F5A922AC
:1001200075A91075A9102275A92075A9202275A995
:100130003075A9302275A94075A9402275A950755E
:10014000A950228E088F0985A70A12018C12017A04
:100150001201671201A8AF09AE081201031201A033
:10016000120196850AA7227590FF75A51075F2FFFA
:1001700075D50FE4F5EE75EDFF227580FFE4F5A46B
:1001800075F1FF75D4FFF5FE75FDFF22E4F5A77547
:1001900097DE7597AD2253F77F75DA4675FC3E22E0
:1001A000C2DE75D902D2DE2275E34075E201220279
:0601B0000B0000C100007D
:00000001FF
