:020000040000FA
:10000000020D0D85A7551200361211A11211B4125E
:10001000002E1211BB1211971211AB1210F5121112
:100020002412116F12118D8555A722020E0275A69A
:0200300040226C
:0D003300020C76E4F5A77597DE7597AD22F7
:10004300020BD8EF540FC454F0FEEF54F0C4540F16
:100053004EFF543325E025E0FEEF54CC1313543FF9
:0F0063004EFF545525E0FEEF54AAC3134EFF2263
:1000730002115FE4F555E4FDAF55120FD70555E5C1
:0700830055C3948040F022F8
:10008B00020F040201BBE86480F8E933E833601126
:10009B000460F0ED33EC337009E8FCE9FDEAFEEBAC
:1000AB00FF220460DED3EB9FEA9EE99DE8C2E78C5A
:1000BB00F0C2F795F0400CE8CCF8E9CDF9EACEFAAE
:1000CB00EBCFFB12018685D0F05804700320D5B31B
:1000DB00E80470075002B2D50201C592D5EC04605A
:1000EB00F7E4CCC0E0C398F8603B94186008400D6F
:1000FB00D0E0FB02019DE4FBFAC9FC8028E830E468
:10010B0006E4C9FBE4CAFCE830E305E4C9CACBFC4E
:10011B00E854076010F8C3E913F9EA13FAEB13FB81
:10012B00EC13FCD8F130F52FC3E49CFCEF9BFFEEF6
:10013B009AFEED99FDD0E0FBEF4E4D4C701222DB99
:10014B00030201C2EC2CFCEF33FFEE33FEED33FD6B
:10015B00ED30E7EB02019DEF2BFFEE3AFEED39FDA3
:10016B00D0E0FB50130BBB00030201C5ED13FDEEFA
:10017B0013FEEF13FFEC13FC02019DE9D2E7C93329
:10018B00E833F892D5EDD2E7CD33EC33FC5002B225
:10019B00D522EC30E7100FBF000C0EBE00080DBDD2
:1001AB0000040BEB6014A2D5EB13FCED92E7FD22E0
:1001BB0074FFFCFDFEFF22E480F8A2D574FF13FC54
:1001CB007D80E480EFF920E72824F950037907E4D8
:1001DB00F42402FB18DBFDE624FB5014E9600DE46C
:1001EB00F618E604F6B40A08E4F6D9F57401F60A33
:1001FB0022C2D522ED33EC3392D5FA602AB4FF3309
:10020B00EDC2E77BFF60067A027924E4227A027959
:10021B002D20D5047A027928224E614E002B494EAF
:10022B0046002D494E4600E47A08F608DAFC7B00BE
:10023B00740722E8C0E0ECC0E0EDC0E0EEC0E0EFF8
:10024B00C0E0EA75F010A4CAABF075F04DA42BFB1F
:10025B00E435F0FCEA2410FAEB34C5FBEC34D9FCA2
:10026B00EDC2E7FF75F056A4F42411C5F0F434C5C4
:10027B008FF0A42AE5F03BE43CF620E7141204D8F7
:10028B00D0E0FFD0E0FED0E0FDD0E0FC12040B800C
:10029B0014F4041204D8D0E0FFD0E0FED0E0FDD07F
:1002AB00E0FC120302D0E0F8E6FAEDD2E7CD33EC36
:1002BB00332482FBE4C3CF33CFCE33CECD33CD3318
:1002CB00DBF37B0775F00A846004F6081B0AE5F084
:1002DB00F6088FF0740AA4FFACF08EF0740AA42C0D
:1002EB00FEACF050010C8DF0740AA42CFDE435F03B
:1002FB00F608DBDE740722EC4D6011E8497017ED50
:10030B0033EC3304600DE4FCFFFEFD22E933E833EC
:10031B000470F80201BB12018658046009E4CC2476
:10032B008150062850090201C52840030201C2C0B2
:10033B00E0EB4A7044B98006D0E0FB0201B1EF4E0E
:10034B00701CBD8008EBFFEAFEE9FD80EBE98DF048
:10035B00A4FEE5F00203EBE9CDF9EAFEEBFFEF8932
:10036B00F0A4FCE5F0CE89F0A42EFFE435F0CD89A6
:10037B00F0A42DFEE435F08067EF4E7005BD80D7FD
:10038B0080C3EF8BF0A4ACF0EE8BF0A42CFCE43527
:10039B00F0F8EF8AF0A42CE5F038FCE433CB8DF0C9
:1003AB00A42CFCE5F03BF8EE8AF0A42CFCE5F0382D
:1003BB00F8E433CF89F0A42CFCE5F038CF3400CE31
:1003CB0089F0A42FFFE5F03EFEE433C98DF0A42E97
:1003DB00FEE5F039CD8AF0A42FFFE5F03EFEE43DBB
:1003EB00FD33D0E0FB50070BBB000F0201C5EC2C1B
:1003FB00FCEF33FFEE33FEED33FD02019D0201C531
:10040B00EC5D046005E8590470030201BB12018620
:10041B00580460F6EC4860F2EC7004FDFEFF22C855
:10042B0060DB2481C85009C398600250060201C2E8
:10043B009850CAF582E9294B4A7005AB820201B18B
:10044B0075F0007C1A7880C3EF9BEE9AED99400D06
:10045B00C3EF9BFFEE9AFEED99FDE842F0DC23AC77
:10046B00F0D0E0FFD0E0FED0E0FDAB8220E7101B28
:10047B00EB60BAEC2CFCEF33FFEE33FEED33FD02F9
:10048B00019DE803F830E705C0F075F000EF2FFF92
:10049B00EE33FEED33FD40B830E7C280AA3F80005B
:1004AB00004120000042C80000447A0000461C4076
:1004BB000047C35000497424004B1896804CBEBCB7
:1004CB00205A0E1BCA6753C21C749DC5AEFB600637
:1004DB005407601C2323120506EB543860091204E1
:1004EB00F2120501120302ECF8EDF9EEFAEFCB2252
:1004FB00EB12050180F1543803241C9004A8FE93E1
:10050B00FC0EEE93FD0EEE930ECE93FF22BB010677
:10051B0089828A83E0225002E722BBFE02E3228912
:10052B00828A83E49322BB010CE58229F582E58361
:10053B003AF583E0225006E92582F8E622BBFE0657
:10054B00E92582F8E222E58229F582E5833AF583F3
:10055B00E49322BB010689828A83F0225002F722A0
:10056B00BBFE01F322ECF608EDF608EEF608EFF60B
:10057B0022FAE6FB0808E6F925F0F618E6CA3AF681
:10058B0022D083D082F8E4937012740193700DA380
:10059B00A393F8740193F5828883E47374029368D0
:1005AB0060EFA3A3A380DFE56C2458F8E6056C226B
:1005BB0078553007027858E475F00112057C020576
:1005CB00182000EB7F2ED2008018EF540F2490D40C
:1005DB003440D4FF30040BEF24BFB41A0050032473
:1005EB0061FFE56D6002156D0570E5707002056FBA
:1005FB0030070D7855E475F00112057CEF02055EAE
:10060B0002104D7403D2078003E4C207F56C8B55BF
:10061B008A568957E4F56DF56FF570E56D60077FC8
:10062B00201205ED80F5756EFFC201C200C202C239
:10063B0003C205C206C2081205BBFF700D300705C9
:10064B007F001205FEAF70AE6F22B4255FC2D5C21C
:10065B00041205BBFF24D0B40A00501A75F00A78B7
:10066B006D30D50508B6FF0106C6A426F620D504C5
:10067B007002D20380D924CFB41A00EF5004C2E524
:10068B00D2040208EBD20180C6D20080C0D2028015
:10069B00BCD2D580BAD20580B47F201205ED2002E2
:1006AB00077401B56D0040F11205B2FF1205ED02A2
:1006BB000626D208D20680951205B2FB1205B2FAB5
:1006CB001205B2F94A4B700679E27A097BFF2002D8
:1006DB002EE56D602A7E008E8275830012053160D7
:1006EB00060EEE656E70F0C2D5EBC0E0EAC0E0E935
:1006FB00C0E0EE12094BD0E0F9D0E0FAD0E0FB12EB
:10070B000518FF60AAEBC0E0EAC0E0E9C0E0120503
:10071B00EDD0E02401F9D0E03400FAD0E0FBE56E37
:10072B000460DCD56ED98087D20280A212092E60BC
:10073B00F7E56E7001041201D0A96E600DE56E60D5
:10074B000914F56E1209D5EF60F3EA30E702F404F1
:10075B00C3995077EAF4256E0430E701E404F56E93
:10076B00800D12092E60C1EA056E256E1201D0EACA
:10077B00786BF630E701E4256E04D56E0420050195
:10078B001412094BE4C0E01209D5786BE660132014
:10079B00E70714F61205D5802204F6D0E014C0E06A
:1007AB007F001205D5E56E60071205CC156E800B28
:1007BB003005031205CCD0E0020626D0E00480C53C
:1007CB0012092E60A0E56E041201D0786BEAF6E5F3
:1007DB006E200502600104240412094B74FF04C04F
:1007EB00E01209D51205D5E56E200502600312054E
:1007FB00CCD0E0B56EE87F451205DF786BE67F2B3A
:10080B0030E7047F2DF404C0E01205EDD0E075F065
:10081B000A84C0F01205D6D0E01205D6020626795E
:10082B001080027908C206C2088008D2D5790A80E6
:10083B0004790AC2D5E56E047002F56EE4FAFDFE8A
:10084B00FF1205B2FC7B082001131205B2FD7B10D1
:10085B0030000A1205B2FE1205B2FF7B20EC338288
:10086B00D592D55013C3E43000069FFFE49EFEE4FF
:10087B002001039DFDE49CFCE4CBF8C201EC700C61
:10088B00CFCECDCCE824F8F870F38017C3EF33FF4D
:10089B00EE33FEED33FDEC33FCEB33FB994002FB07
:1008AB000FD8E9EB300105F8D0E0C448B201C0E045
:1008BB000AEC4D4E4F78207B0070C2EAB56E0040BB
:1008CB00BCC0E012094DD0F0D0E0200104C4C0E060
:1008DB00C4B201C0F01205D6D0F0D5F0EB0206265B
:1008EB0012058C06C353082A5806944C06904208EE
:1008FB002E4F08364408364906A943083C55076D68
:10090B004607CB450737470A025006982D069C2E03
:10091B0006BF2B06A02306BD2009EB2A065848006C
:10092B000006B7E56EB4FF03756E061205B2FC1236
:10093B0005B2FD1205B2FE1205B2FF78640201FF8B
:10094B00790AA2D5200314300509B910020404B9A1
:10095B00080104A2D520060250010420026892026D
:10096B00B56D005034C0E07F203003197F30A202F8
:10097B0072067205500F1209A4C202C206C205C24A
:10098B00087F30800F300503E9C0E01205ED30051C
:10099B0003D0E0F9D0E0B56DCC3005177F30B9103E
:1009AB000C1205ED7F583004077F788003B90803DC
:1009BB001205ED3002057F2D0205ED7F202008F892
:1009CB007F2B2006F322920280CF7F00B4070050CA
:1009DB00052464F8E6FF22286E756C6C2900D201A1
:1009EB001205B23001F8C201786D30D50108F6025C
:1009FB0006582D504349581205B22403B405004044
:100A0B0001E49009FD931205DE743A1205DED20360
:100A1B00756D0402082A75540112000312117FC26E
:100A2B0094D2AF7558FF75590E755AB3AF27AE26D2
:100A3B00AD25AC248F5E8E5D8D5C8C5B7B007A006C
:100A4B00793812060E7B007A0079387D0A120D99DF
:100A5B007597A57558FF75590E755AC5AF27AE26F4
:100A6B00AD25AC248F5E8E5D8D5C8C5B7B007A003C
:100A7B00793812060E7B007A0079387D0A120D99AF
:100A8B007558FF75590E755AD7AF2BAE2AAD29ACD9
:100A9B00288F5E8E5D8D5C8C5B7B007A00793812C3
:100AAB00060E7B007A0079387D19120D997558FF67
:100ABB0075590E755AE6AF2FAE2EAD2DAC2C8F5E41
:100ACB008E5D8D5C8C5B7B007A00793812060E7B19
:100ADB00007A0079387D28120D997558FF75590EDB
:100AEB00755AF5AF33AE32AD31AC308F5E8E5D8D56
:100AFB005C8C5B7B007A00793812060E7B007A00E7
:100B0B0079387D37120D99020A5B8F5B8D5C8B5D9B
:100B1B00AB5EAA5FA9601205187003020BD7F561D3
:100B2B00C3648094A04009D3E561648094FE4003C4
:100B3B00756120E55CD394784002807CAF61EF3324
:100B4B0095E0FE75F064E55DA42FF582E5F03EF5CA
:100B5B0083E58224A2F582E5833419F583E493F9C6
:100B6B00E55C131313541F255BFDF8C000E6FA0870
:100B7B00E6FBE55C5407FCE47EFFA804088005CE89
:100B8B00C313CE13D8F9F4FFEEF45AFEEB5FD0008B
:100B9B00A60608F6A805C000E6FA08E6FBE9FEE49F
:100BAB00A804088005CEC313CE13D8F9FFEA4EFE76
:100BBB00EB4FD000A60608F674012560F560E4350E
:100BCB005FF55F7406255CF55C020B1B22C0E0C071
:100BDB00F0C083C082C0D075D000C000C001C0027D
:100BEB00C004C005C006C007A9A77F002082027FF2
:100BFB0001EF700C7F002083027F01EF7002C20EA9
:100C0B0020824A200E47D20EAF37AE36AD35AC340C
:100C1B000523E523AA22700205221425E025E024F2
:100C2B0028F8120570753700753600753500753468
:100C3B0000D3E5239402E52264809480400675225C
:100C4B0000752302209404D2948002C29475A710DD
:100C5B0089A7D007D006D005D004D002D001D00090
:100C6B00D0D0D082D083D0F0D0E032C0E0C0F0C082
:100C7B0083C082C0D075D000C000C001C002C003C9
:100C8B00C004C005C006C00775A720E5F854F0F4F2
:100C9B00440F52F8AF9BEF30E34DE5106031E5A107
:100CAB0020E02C300A13851482851383E5A3F0050D
:100CBB0014E51470070513800385A353D5100D306D
:100CCB000C05300902D2FA12113A8003851012E595
:100CDB0011601430F911300B09A815E2F5A30515B5
:100CEB00800375A3001511D007D006D005D004D012
:100CFB0003D002D001D000D0D0D082D083D0F0D09E
:100D0B00E032787FE4F6D8FD758185020D54020A36
:100D1B0021E493A3F8E493A34003F68001F208DFE8
:100D2B00F48029E493A3F85407240CC8C333C454A8
:100D3B000F4420C8834004F456800146F6DFE4805C
:100D4B000B0102040810204080901012E47E0193E6
:100D5B0060BCA3FF543F30E509541FFEE493A3602E
:100D6B00010ECF54C025E060A840B8E493A3FAE489
:100D7B0093A3F8E493A3C8C582C8CAC583CAF0A3DA
:100D8B00C8C582C8CAC583CADFE9DEE780BE8D58F5
:100D9B008B558A5689571210748F5AE4F559E559B9
:100DAB0090180293FF74762559F8A6070559E55953
:100DBB00B410EBE4F5597F767B707D101210D9C01F
:100DCB0007C37480955AFFE49400C313EF13FD859A
:100DDB00555E85565F855760D007AB59120B15E5ED
:100DEB00592558FF7B007A007976120F540559E587
:100DFB0059C3940840C022C0E0C0F0C083C082C079
:100E0B00D075D000C000C001C002C003C004C00533
:100E1B00C006C00753C87F53C8FBE518B401127551
:100E2B0018027F008519527B02E4FDFC120E6180D3
:100E3B000AE518B40305C2A6751800D007D006D072
:100E4B0005D004D003D002D001D000D0D0D082D0B6
:100E5B0083D0F0D0E0328552108552118552128F1B
:100E6B00158C138D14EB13920AEBA2E1920BAFA727
:100E7B0075A720200D0312114E439A0453F80F53FC
:100E8B009BEF439A08300C05300902C2FA30F91572
:100E9B00E5116011300B09A815E2F5A305158003C8
:100EAB00E4F5A315118FA7224C41502074696D6591
:100EBB0020252E32662073656300544F54207469CD
:100ECB006D6520252E326620736563004C415020E2
:100EDB003120252E326620736563004C4150203241
:100EEB0020252E326620736563004C415020332041
:100EFB00252E32662073656300C0E0C0F0C083C04E
:100F0B0082C0D075D008C29FAF27AE26AD25AC24CA
:100F1B007BB07A0F79FC783C1200958F278E268D4B
:100F2B00258C24AF37AE36AD35AC347BB07A0F7928
:100F3B00FC783C1200958F378E368D358C34D0D0A3
:100F4B00D082D083D0F0D0E0328F5B8B5C8A5D890E
:100F5B005E7F801210998F5FE55B04FF1200468F56
:100F6B0060E4FFAB5CAA5DA95E8F827583001205FE
:100F7B0031FE74612FF8A6060FBF10E7E4F571F58B
:100F8B0072FB7A00795F7D14020F968B738A7489DA
:100F9B0075E51870FC7518018D19E4FFEFC39D50B2
:100FAB0018AB73AA74A9758F82758300120531FE75
:100FBB0074002FF8EEF20F80E3AFA7E4F5A775CF1F
:100FCB00FF75CEF4D2A643C8048FA7228F568D5738
:100FDB00E55760057557FF8003E4F5577F801210C6
:100FEB00998F58E55604FF1200468F59E4FF745A47
:100FFB002FF8A6570FBF10F6E4F56AF56BFB7A00D6
:10100B0079587D14020F9602160000011800011981
:10101B0000021A0000C109C10CC10DC10AC10B01AC
:10102B001000011100011200011500021300000451
:10103B00240000000004340000000002220000C164
:10104B000E00EFB40A07740D121058740A30981181
:10105B00A899B8130CC2983098FDA899C298B811EA
:10106B00F63099FDC299F599228B5B8A5C895DE418
:10107B00FFAB5BAA5CA95DAE070F8E827583001276
:10108B00053170ED1FEF75F006A42402FF228F735C
:10109B0012110EC3EF9517FDEE9516FCD3ED94C808
:1010AB00EC940040074373408E168F17AF7322AB3F
:1010BB0007AA0612110E8F828E8312110EC3EF95A3
:1010CB0082FFEE9583FEC3EF9BEE9A40ED22ED136C
:1010DB001313541FFEEB131313541FFDEEC39D503C
:1010EB0008EF2EF8E4F60E80EC22E59154045391B0
:1010FB00FB7595F87594067593F8759206439104F4
:10110B00429122AFA775A71053E67FAD1BAC1A43D4
:10111B00E6808FA7AE04AF052275A710E59854049F
:10112B005398FB75A5FE75A46843980442982275E5
:10113B001803AFA7E4F5A775CFFF75CEFC43C80422
:10114B008FA722E5A1A2E6920CE5F8540C24FF929E
:10115B0009D20D22C0E053917F051BE51B700205E0
:10116B001AD0E032E4F5A775A20B43A14053F8F374
:10117B0043F80122C2A6D2B47F0A7E001210BA0233
:10118B00007675E68275F30475A8E022E4F5A77581
:10119B00E34075E1022275A44075D43F75FE04222D
:1011AB00E4F5A9E5A930E7FB2275A50375D5FE2269
:1011BB0075A720759C1022000000000000000000A5
:1011CB00000000000000007FFFFFFFFFFFFFFFFF9D
:1011DB00FFFFFFFFFFFFFE400000000000000000CC
:1011EB0000000000000002400000000000000000B2
:1011FB0000000000000002400000000000000000A2
:10120B000000000000000240000000000000000091
:10121B000000000000000240000000000000000081
:10122B000000000000000240000000000000000071
:10123B000000000000000240000000000000000061
:10124B000000000000000240000000000000000051
:10125B000000000000000240000000000000000041
:10126B0000000000000002400000000000008000B1
:10127B0000000018000002400000000000080007FA
:10128B00FFE00006000002400000000000C0007FED
:10129B00FFFE00038000024000000000070003FF78
:1012AB00FFFF0003E00002400000000038001FFFBA
:1012BB00FFFF8003E000024000000001E0003FFF61
:1012CB00FFFF8003F00002400000000F8000FFFFD3
:1012DB00FFFF8007F80002400000003E0001FFFF07
:1012EB00FFFE001FF8000240000000FC0003FFFFA0
:1012FB00FFFF80FFF8000240000003F80007FFFF2C
:10130B00FFFFFFFFF8000240000007F00007FFF8A7
:10131B00003FFFFFF800024000001FF00007F00045
:10132B0000007FFFF800024000003FF00003C00008
:10133B0000000FFFF000024000007FF00001F00002
:10134B00000003FFE00002400000FFF800007FFFF9
:10135B00800001FFC00002400001FFFC0000027F83
:10136B00F00000FF800002400003FFFF00000000C0
:10137B003C0000FF000002400007FFFFE000000000
:10138B00FE0000FE000002400007FFFFFF8001FF90
:10139B00FE0000F8000002400007FFFFFFFFFFFF09
:1013AB00FE0001F0000002400007FFF87FFFFFFF87
:1013BB00FE0003C0000002400007FFE007FFFFFF35
:1013CB00FC000700000002400007FF800FFFFFFF3B
:1013DB00F0001C00000002400003FF001FFFFFFF96
:1013EB00E0006000000002400003FE000FFFFFFF63
:1013FB0080010000000002400001FC0007FFFFFC21
:10140B00000000000000024000007C0001FFFFC054
:10141B00000000000000024000001E00000BE00076
:10142B0000000000000002400000078000000000E8
:10143B0000000000000002400000006000000000FF
:10144B00000000000000024000000000000000004F
:10145B00000000000000024000000000000000003F
:10146B00000000000000024000000000000000002F
:10147B0000000000000002400007C21021F1F888B4
:10148B00008060F8F800024000044210211108C8E7
:10149B00008060888800024000040210210108C807
:1014AB00008090888000024000070210210108E8AC
:1014BB0000809088E00002400001C210210108A8C2
:1014CB00008090F83800024000004210210108B85B
:1014DB00008090880800024000004210210108980B
:1014EB000081F8880800024000044210211108987E
:1014FB0000810888880002400007C21F21F1F8888C
:10150B0000F908F8F800024000000000000000009D
:10151B00000000000000024000000000000000007E
:10152B00000000000000024000000000000000006E
:10153B00000000000000024000000000000000005E
:10154B00000000000000024000000000000000004E
:10155B00000000000000024000000000000000003E
:10156B00000000000000024000000000000000002E
:10157B00000000000000024000000000000000001E
:10158B00000000000000024000000000000000000E
:10159B0000000000000002400000000000000000FE
:1015AB0000000000000002400000000000000000EE
:1015BB0000000000000002400000000000000000DE
:1015CB0000000000000002400000000000000000CE
:1015DB0000000000000002400000000000000000BE
:1015EB0000000000000002400000000000000000AE
:1015FB00000000000000024000000000000000009E
:10160B00000000000000024000000000000000008D
:10161B00000000000000024000000000000000007D
:10162B0000000000000002407FFFFFFFFFFFFFFFF5
:10163B00FFFFFFFFFFFC0240400000000000000026
:10164B000000000000040240400000000000000009
:10165B0000000000000402404000000000000000F9
:10166B0000000000000402404000000000000000E9
:10167B0000000000000402404000000000000000D9
:10168B0000000000000402404000000000000000C9
:10169B0000000000000402404000000000000000B9
:1016AB0000000000000402404000000000000000A9
:1016BB000000000000040240400000000000000099
:1016CB000000000000040240400000000000000089
:1016DB000000000000040240400000000000000079
:1016EB000000000000040240400000000000000069
:1016FB000000000000040240400000000000000059
:10170B000000000000040240400000000000000048
:10171B000000000000040240400000000000000038
:10172B000000000000040240400000000000000028
:10173B000000000000040240400000000000000018
:10174B000000000000040240400000000000000008
:10175B0000000000000402404000000000000000F8
:10176B0000000000000402404000000000000000E8
:10177B0000000000000402404000000000000000D8
:10178B0000000000000402404000000000000000C8
:10179B0000000000000402404000000000000000B8
:1017AB0000000000000402404000000000000000A8
:1017BB000000000000040240400000000000000098
:1017CB000000000000040240400000000000000088
:1017DB000000000000040240400000000000000078
:1017EB000000000000040240400000000000000068
:1017FB000000000000040240400000000000000058
:10180B000000000000040240400000000000000047
:10181B000000000000040240400000000000000037
:10182B000000000000040240400000000000000027
:10183B000000000000040240400000000000000017
:10184B000000000000040240400000000000000007
:10185B0000000000000402404000000000000000F7
:10186B0000000000000402404000000000000000E7
:10187B0000000000000402404000000000000000D7
:10188B0000000000000402404000000000000000C7
:10189B0000000000000402404000000000000000B7
:1018AB0000000000000402404000000000000000A7
:1018BB000000000000040240400000000000000097
:1018CB000000000000040240400000000000000087
:1018DB000000000000040240400000000000000077
:1018EB000000000000040240400000000000000067
:1018FB000000000000040240400000000000000057
:10190B0000000000000402407FFFFFFFFFFFFFFF0E
:10191B00FFFFFFFFFFFC0240000000000000000083
:10192B00000000000000024000000000000000006A
:10193B00000000000000024000000000000000005A
:10194B00000000000000024000000000000000004A
:10195B00000000000000024000000000000000003A
:10196B00000000000000024000000000000000002A
:10197B00000000000000024000000000000000001A
:10198B00000000000000024000000000000000000A
:10199B00000000000000027FFFFFFFFFFFFFFFFFC3
:1019AB00FFFFFFFFFFFFFE00000000000000000034
:1019BB00000000000000000020505020C0606010AC
:1019CB0040000000000000702070F810F830F87034
:1019DB00700000080080707070F070E0F8F870888C
:1019EB0070388880888870F070F078F888888888DC
:1019FB0088F87000702000400080000800300080E4
:101A0B00201080600000000000000040000000007B
:101A1B0000003020600000000000000020505078D3
:101A2B00C890202020202000000000886088103003
:101A3B0080400888886060100040880888888890FB
:101A4B008080888820109080D8888888888880201B
:101A5B008888888888084000105000200080000883
:101A6B00004878800000802000000000000000404B
:101A7B0000000000000040201040000000000000AB
:101A8B002050F88010A0404010A8200000000898BB
:101A9B0020082050F080108888606020F82008080B
:101AAB0088888088808080882010A080A8C888883B
:101ABB008888802088888850881040801088001083
:101ACB0070B07068704088B060309020D0B070F00B
:101ADB0068B070E08888888888F8402010A80000DB
:101AEB000000000020005070204000401070F800F3
:101AFB00F80010A82010109008F02070780000401B
:101B0B000010106888F08088F0F0B8F82010C080C2
:101B1B00A8A888F088F070208888A8205020404022
:101B2B001000000008C8809888E088C82010A0200A
:101B3B00A8C8888898C880408888885088108020DA
:101B4B0008100000000000000000F80840A800404A
:101B5B0010A82060000020C8202008F808884088C2
:101B6B0008606020F82020A8F8888088808088880A
:101B7B002010A08088988880A8A008208888A8506A
:101B8B00204040201000000078888088F84078883A
:101B9B002010C020A88888F0788070408888A82002
:101BAB00782040201000000000000000000050F0E2
:101BBB009890002020202020006040882040881032
:101BCB008888408810602010004000A88888889082
:101BDB0080808888209090808888888090900820CA
:101BEB008850A888208040101000000088888888C2
:101BFB00804008882090A02088888880088008482A
:101C0B009850A85008404020100000000000000031
:101C1B0020005020186800104000004000608070C9
:101C2B0070F8701070704070600040080080207079
:101C3B0088F070E0F8807088706088F88888708011
:101C4B006888F0207020508820F870087000FC0025
:101C5B0078F07078704070887060907088887080B1
:101C6B000880F0306820508870F830206000000049
:101C7B000000000000000000000000000000000059
:101C8B000000000000000000000000000000000049
:101C9B000000000000000000000000000000000039
:101CAB000000000000000000000000000000000029
:101CBB000000000000000000000000000000000019
:101CCB000000000000000000000000000000000009
:071CDB000000000000000002
:00000001FF
