:020000040000FA
:1000000002018285A70812023412020E12023E1269
:1000100002211202428508A7220239FFFFC1000215
:0A0020003B000000D2AF20AFFD222C
:10002B0002002EC0E0C0F0C0D075D000C000C007E9
:10003B00C2CFE53B7070E53C14606314606424022E
:10004B007064AF3AEF75F006A42421F8E624FF9212
:10005B0092AF3AEF75F006A42422F8E624FF9293B0
:10006B00AF3AEF75F006A42423F8E624FF9294AF81
:10007B003AEF75F006A42424F8E624FF9295AF3AE4
:10008B00EF75F006A42425F8E624FF9296AF3AEF1D
:10009B0075F006A42426F8E624FF92978008D291E7
:1000AB008004C291C2AFD3E53C9401E53B648094DC
:1000BB0080500A053CE53C7002053B8006753B0011
:1000CB00753C00D007D000D0D0D0F0D0E032120079
:1000DB0003E4F521F522F523F524F525F5267527FF
:1000EB0001F528F529F52AF52BF52CF52D752E01A3
:1000FB00F52FF530F531F532753301753401F535E2
:10010B00F536F537F538F539F53A753B01F53CF52C
:10011B003DF53EC2B4C2AFC2B47F002082027F0164
:10012B00EF700C7F002083027F01EF7002C2002072
:10013B00822120001ED200053AE53A70020539D320
:10014B00E53A9405E539648094804026E4F539F569
:10015B003A801F2083C32000C0D200E53A153A70C5
:10016B00021539C3E53964809480500675390075E2
:10017B003A0412002480A0787FE4F6D8FD75813C08
:10018B000201C90200D9E493A3F8E493A34003F658
:10019B008001F208DFF48029E493A3F85407240CC0
:1001AB00C8C333C4540F4420C8834004F4568001A1
:1001BB0046F6DFE4800B010204081020408090001B
:1001CB0019E47E019360BCA3FF543F30E509541F33
:1001DB00FEE493A360010ECF54C025E060A840B8A5
:1001EB00E493A3FAE493A3F8E493A3C8C582C8CA23
:1001FB00C583CAF0A3C8C582C8CAC583CADFE9DEF6
:10020B00E780BE7590FF75A57075F2FF75D5FEE49E
:10021B00F5EE75EDFF22E5C8540453C8FB75CB38DA
:10022B0075CA9E43C80442C822E4F5A77597DE75CC
:0B023B0097AD2275E3402275A8A022B9
:00000001FF
