:020000040000FA
:1000000002018885A70812023A1202141202441251
:1000100002271202488508A722023FFFFFC1000203
:0A00200041000000D2AF20AFFD2226
:10002B000200DD120003E4F5217522017523017531
:10003B002401752501752601F527F528F529F52AE3
:10004B00F52BF52C752D01F52EF52FF530F53175BA
:10005B003201F533753401F535F536F53775380161
:10006B00F539F53A753B01F53CF53D753E01C2B4EA
:10007B00C2AFC2B47F002082027F01EF700C7F0001
:10008B002083027F01EF7002C20020822120001E1C
:10009B00D2000540E5407002053FD3E5409404E5EE
:1000AB003F648094804026E4F53FF540801F208319
:1000BB00C32000C0D200E54015407002153FC3E5D8
:1000CB003F648094805006753F00754004120024F5
:1000DB0080A0C0E0C0F0C0D075D000C000C007C287
:1000EB00CFE5417070E542146063146064240270C4
:1000FB0064AF40EF75F006A42421F8E624FF92923A
:10010B00AF40EF75F006A42422F8E624FF9293AFDC
:10011B0040EF75F006A42423F8E624FF9294AF4039
:10012B00EF75F006A42424F8E624FF9295AF40EF78
:10013B0075F006A42425F8E624FF9296AF40EF75E0
:10014B00F006A42426F8E624FF92978008D291802B
:10015B0004C291C2AFD3E5429401E541648094801F
:10016B00500A0542E5427002054180067541007553
:10017B004200D007D000D0D0D0F0D0E032787FE46E
:10018B00F6D8FD7581420201CF02002EE493A3F84D
:10019B00E493A34003F68001F208DFF48029E49393
:1001AB00A3F85407240CC8C333C4540F4420C8838A
:1001BB004004F456800146F6DFE4800B010204088C
:1001CB0010204080900019E47E019360BCA3FF5483
:1001DB003F30E509541FFEE493A360010ECF54C0DA
:1001EB0025E060A840B8E493A3FAE493A3F8E49362
:1001FB00A3C8C582C8CAC583CAF0A3C8C582C8CA6A
:10020B00C583CADFE9DEE780BE75900175A5FE7573
:10021B00F2FF75D5FEE4F5EE75EDFF22E5C854044B
:10022B0053C8FB75CB3875CA9E43C80442C822E439
:10023B00F5A77597DE7597AD2275E3402275A8A0DB
:01024B002290
:00000001FF
