:020000040000FA
:10000000020D6185A75D1200361211B81211CB12D4
:10001000002E1211D21211AE1211C212110C1211B5
:100020003B1211861211A4855DA722020E5675A6F9
:0200300040226C
:0D003300020CCAE4F5A77597DE7597AD22A3
:10004300020AE4EF540FC454F0FEEF54F0C4540F0B
:100053004EFF543325E025E0FEEF54CC1313543FF9
:0F0063004EFF545525E0FEEF54AAC3134EFF2263
:10007300021176E4F55DE4FDAF5D121029055DE53F
:070083005DC3948040F022F0
:10008B00020F070201BBE86480F8E933E833601123
:10009B000460F0ED33EC337009E8FCE9FDEAFEEBAC
:1000AB00FF220460DED3EB9FEA9EE99DE8C2E78C5A
:1000BB00F0C2F795F0400CE8CCF8E9CDF9EACEFAAE
:1000CB00EBCFFB12018685D0F05804700320D5B31B
:1000DB00E80470075002B2D50201C592D5EC04605A
:1000EB00F7E4CCC0E0C398F8603B94186008400D6F
:1000FB00D0E0FB02019DE4FBFAC9FC8028E830E468
:10010B0006E4C9FBE4CAFCE830E305E4C9CACBFC4E
:10011B00E854076010F8C3E913F9EA13FAEB13FB81
:10012B00EC13FCD8F130F52FC3E49CFCEF9BFFEEF6
:10013B009AFEED99FDD0E0FBEF4E4D4C701222DB99
:10014B00030201C2EC2CFCEF33FFEE33FEED33FD6B
:10015B00ED30E7EB02019DEF2BFFEE3AFEED39FDA3
:10016B00D0E0FB50130BBB00030201C5ED13FDEEFA
:10017B0013FEEF13FFEC13FC02019DE9D2E7C93329
:10018B00E833F892D5EDD2E7CD33EC33FC5002B225
:10019B00D522EC30E7100FBF000C0EBE00080DBDD2
:1001AB0000040BEB6014A2D5EB13FCED92E7FD22E0
:1001BB0074FFFCFDFEFF22E480F8A2D574FF13FC54
:1001CB007D80E480EFF920E72824F950037907E4D8
:1001DB00F42402FB18DBFDE624FB5014E9600DE46C
:1001EB00F618E604F6B40A08E4F6D9F57401F60A33
:1001FB0022C2D522ED33EC3392D5FA602AB4FF3309
:10020B00EDC2E77BFF60067A027924E4227A027959
:10021B002D20D5047A027928224E614E002B494EAF
:10022B0046002D494E4600E47A08F608DAFC7B00BE
:10023B00740722E8C0E0ECC0E0EDC0E0EEC0E0EFF8
:10024B00C0E0EA75F010A4CAABF075F04DA42BFB1F
:10025B00E435F0FCEA2410FAEB34C5FBEC34D9FCA2
:10026B00EDC2E7FF75F056A4F42411C5F0F434C5C4
:10027B008FF0A42AE5F03BE43CF620E7141204D8F7
:10028B00D0E0FFD0E0FED0E0FDD0E0FC12040B800C
:10029B0014F4041204D8D0E0FFD0E0FED0E0FDD07F
:1002AB00E0FC120302D0E0F8E6FAEDD2E7CD33EC36
:1002BB00332482FBE4C3CF33CFCE33CECD33CD3318
:1002CB00DBF37B0775F00A846004F6081B0AE5F084
:1002DB00F6088FF0740AA4FFACF08EF0740AA42C0D
:1002EB00FEACF050010C8DF0740AA42CFDE435F03B
:1002FB00F608DBDE740722EC4D6011E8497017ED50
:10030B0033EC3304600DE4FCFFFEFD22E933E833EC
:10031B000470F80201BB12018658046009E4CC2476
:10032B008150062850090201C52840030201C2C0B2
:10033B00E0EB4A7044B98006D0E0FB0201B1EF4E0E
:10034B00701CBD8008EBFFEAFEE9FD80EBE98DF048
:10035B00A4FEE5F00203EBE9CDF9EAFEEBFFEF8932
:10036B00F0A4FCE5F0CE89F0A42EFFE435F0CD89A6
:10037B00F0A42DFEE435F08067EF4E7005BD80D7FD
:10038B0080C3EF8BF0A4ACF0EE8BF0A42CFCE43527
:10039B00F0F8EF8AF0A42CE5F038FCE433CB8DF0C9
:1003AB00A42CFCE5F03BF8EE8AF0A42CFCE5F0382D
:1003BB00F8E433CF89F0A42CFCE5F038CF3400CE31
:1003CB0089F0A42FFFE5F03EFEE433C98DF0A42E97
:1003DB00FEE5F039CD8AF0A42FFFE5F03EFEE43DBB
:1003EB00FD33D0E0FB50070BBB000F0201C5EC2C1B
:1003FB00FCEF33FFEE33FEED33FD02019D0201C531
:10040B00EC5D046005E8590470030201BB12018620
:10041B00580460F6EC4860F2EC7004FDFEFF22C855
:10042B0060DB2481C85009C398600250060201C2E8
:10043B009850CAF582E9294B4A7005AB820201B18B
:10044B0075F0007C1A7880C3EF9BEE9AED99400D06
:10045B00C3EF9BFFEE9AFEED99FDE842F0DC23AC77
:10046B00F0D0E0FFD0E0FED0E0FDAB8220E7101B28
:10047B00EB60BAEC2CFCEF33FFEE33FEED33FD02F9
:10048B00019DE803F830E705C0F075F000EF2FFF92
:10049B00EE33FEED33FD40B830E7C280AA3F80005B
:1004AB00004120000042C80000447A0000461C4076
:1004BB000047C35000497424004B1896804CBEBCB7
:1004CB00205A0E1BCA6753C21C749DC5AEFB600637
:1004DB005407601C2323120506EB543860091204E1
:1004EB00F2120501120302ECF8EDF9EEFAEFCB2252
:1004FB00EB12050180F1543803241C9004A8FE93E1
:10050B00FC0EEE93FD0EEE930ECE93FF22BB010677
:10051B0089828A83E0225002E722BBFE02E3228912
:10052B00828A83E49322BB010CE58229F582E58361
:10053B003AF583E0225006E92582F8E622BBFE0657
:10054B00E92582F8E222E58229F582E5833AF583F3
:10055B00E49322BB010689828A83F0225002F722A0
:10056B00BBFE01F322ECF608EDF608EEF608EFF60B
:10057B0022FAE6FB0808E6F925F0F618E6CA3AF681
:10058B0022D083D082F8E4937012740193700DA380
:10059B00A393F8740193F5828883E47374029368D0
:1005AB0060EFA3A3A380DFE5742460F8E605742253
:1005BB00785D3007027860E475F00112057C020566
:1005CB00182000EB7F2ED2008018EF540F2490D40C
:1005DB003440D4FF30040BEF24BFB41A0050032473
:1005EB0061FFE575600215750578E5787002057792
:1005FB0030070D785DE475F00112057CEF02055EA6
:10060B000210647403D2078003E4C207F5748B5D98
:10061B008A5E895FE4F575F577F578E57560077F98
:10062B00201205ED80F57576FFC201C200C202C231
:10063B0003C205C206C2081205BBFF700D300705C9
:10064B007F001205FEAF78AE7722B4255FC2D5C20C
:10065B00041205BBFF24D0B40A00501A75F00A78B7
:10066B007530D50508B6FF0106C6A426F620D504BD
:10067B007002D20380D924CFB41A00EF5004C2E524
:10068B00D2040208EBD20180C6D20080C0D2028015
:10069B00BCD2D580BAD20580B47F201205ED2002E2
:1006AB00077401B5750040F11205B2FF1205ED029A
:1006BB000626D208D20680951205B2FB1205B2FAB5
:1006CB001205B2F94A4B700679E27A097BFF2002D8
:1006DB002EE575602A7E008E8275830012053160CF
:1006EB00060EEE657670F0C2D5EBC0E0EAC0E0E92D
:1006FB00C0E0EE12094BD0E0F9D0E0FAD0E0FB12EB
:10070B000518FF60AAEBC0E0EAC0E0E9C0E0120503
:10071B00EDD0E02401F9D0E03400FAD0E0FBE5762F
:10072B000460DCD576D98087D20280A212092E60B4
:10073B00F7E5767001041201D0A976600DE57660BD
:10074B000914F5761209D5EF60F3EA30E702F404E9
:10075B00C3995077EAF425760430E701E404F57683
:10076B00800D12092E60C1EA057625761201D0EABA
:10077B007873F630E701E4257604D576042005017D
:10078B001412094BE4C0E01209D57873E66013200C
:10079B00E70714F61205D5802204F6D0E014C0E06A
:1007AB007F001205D5E57660071205CC1576800B18
:1007BB003005031205CCD0E0020626D0E00480C53C
:1007CB0012092E60A0E576041201D07873EAF6E5E3
:1007DB0076200502600104240412094B74FF04C047
:1007EB00E01209D51205D5E5762005026003120546
:1007FB00CCD0E0B576E87F451205DF7873E67F2B2A
:10080B0030E7047F2DF404C0E01205EDD0E075F065
:10081B000A84C0F01205D6D0E01205D6020626795E
:10082B001080027908C206C2088008D2D5790A80E6
:10083B0004790AC2D5E576047002F576E4FAFDFE7A
:10084B00FF1205B2FC7B082001131205B2FD7B10D1
:10085B0030000A1205B2FE1205B2FF7B20EC338288
:10086B00D592D55013C3E43000069FFFE49EFEE4FF
:10087B002001039DFDE49CFCE4CBF8C201EC700C61
:10088B00CFCECDCCE824F8F870F38017C3EF33FF4D
:10089B00EE33FEED33FDEC33FCEB33FB994002FB07
:1008AB000FD8E9EB300105F8D0E0C448B201C0E045
:1008BB000AEC4D4E4F78207B0070C2EAB5760040B3
:1008CB00BCC0E012094DD0F0D0E0200104C4C0E060
:1008DB00C4B201C0F01205D6D0F0D5F0EB0206265B
:1008EB0012058C06C353082A5806944C06904208EE
:1008FB002E4F08364408364906A943083C55076D68
:10090B004607CB450737470A025006982D069C2E03
:10091B0006BF2B06A02306BD2009EB2A065848006C
:10092B000006B7E576B4FF037576061205B2FC1226
:10093B0005B2FD1205B2FE1205B2FF786C0201FF83
:10094B00790AA2D5200314300509B910020404B9A1
:10095B00080104A2D520060250010420026892026D
:10096B00B575005034C0E07F203003197F30A202F0
:10097B0072067205500F1209A4C202C206C205C24A
:10098B00087F30800F300503E9C0E01205ED30051C
:10099B0003D0E0F9D0E0B575CC3005177F30B91036
:1009AB000C1205ED7F583004077F788003B90803DC
:1009BB001205ED3002057F2D0205ED7F202008F892
:1009CB007F2B2006F322920280CF7F00B4070050CA
:1009DB0005246CF8E6FF22286E756C6C2900D20199
:1009EB001205B23001F8C201787530D50108F60254
:1009FB0006582D504349581205B22403B405004044
:100A0B0001E49009FD931205DE743A1205DED20360
:100A1B0075750402082A8F638D648B65AB66AA67B4
:100A2B00A9681205187003020AE3F569C364809480
:100A3B00A04009D3E569648094FE4003756920E505
:100A4B0064D394784002807CAF69EF3395E0FE75F8
:100A5B00F064E565A42FF582E5F03EF583E582248D
:100A6B00B9F582E5833419F583E493F9E56413133F
:100A7B0013541F2563FDF8C000E6FA08E6FBE56496
:100A8B005407FCE47EFFA804088005CEC313CE13E5
:100A9B00D8F9F4FFEEF45AFEEB5FD000A60608F689
:100AAB00A805C000E6FA08E6FBE9FEE4A804088006
:100ABB0005CEC313CE13D8F9FFEA4EFEEB4FD00091
:100ACB00A60608F674012568F568E43567F56774C2
:100ADB00062564F564020A2722C0E0C0F0C083C07B
:100AEB0082C0D075D000C000C001C002C004C005D8
:100AFB00C006C007A9A77F002082027F01EF700C00
:100B0B007F002083027F01EF7002C20E2082033030
:100B1B000E0620834A200E47D20EAF2FAE2EAD2DE0
:100B2B00AC2C0523E523AA22700205221425E0250F
:100B3B00E02428F8120570752F00752E00752D0016
:100B4B00752C00D3E5239400E52264809480400645
:100B5B00752200752300209404D2948002C29475F0
:100B6B00A71089A7D007D006D005D004D002D0019A
:100B7B00D000D0D0D082D083D0F0D0E032E4F55C7E
:100B8B00120003121196C294D2AFAA46A9477BFF5B
:100B9B007D58120DED7560FF75610C756297AF276F
:100BAB00AE26AD25AC248F668E658D648C637B0081
:100BBB007A00793012060E7B007A0079307D0A12AA
:100BCB000DED7597A57560FF75610C7562A9AF2763
:100BDB00AE26AD25AC248F668E658D648C637B0051
:100BEB007A00793012060E7B007A0079307D0A127A
:100BFB000DED7560FF75610C7562BBAF2BAE2AAD49
:100C0B0029AC288F668E658D648C637B007A0079A6
:100C1B003012060E7B007A0079307D14120DED80B8
:100C2B00A1302E204C41502054494D45203D2000F1
:100C3B00312E2049646C65204D6F646500322E2087
:100C4B0053746F70204D6F646500332E2053757392
:100C5B0070656E64204D6F646500342E20536E6F8B
:100C6B006F7A65204D6F646500352E20536875745F
:100C7B00646F776E204D6F6465002A4163746976EB
:100C8B00652A002A57616B6575702A004C4150200C
:100C9B0074696D6520252E32662073656300544F91
:100CAB00542074696D6520252E32662073656300B0
:100CBB004C4150203120252E32662073656300C0D5
:100CCB00E0C0F0C083C082C0D075D000C000C001AE
:100CDB00C002C003C004C005C006C00775A720E54D
:100CEB00F854F0F4440F52F8AF9BEF30E34DE5109E
:100CFB006031E5A120E02C300A1385148285138323
:100D0B00E5A3F00514E51470070513800385A35BB9
:100D1B00D5100D300C05300902D2FA121151800397
:100D2B00851012E511601430F911300B09A815E28A
:100D3B00F5A30515800375A3001511D007D006D0B8
:100D4B0005D004D003D002D001D000D0D0D082D0B7
:100D5B0083D0F0D0E032787FE4F6D8FD75818D0238
:100D6B000DA8020B88E493A3F8E493A34003F68049
:100D7B0001F208DFF48029E493A3F85407240CC88C
:100D8B00C333C4540F4420C8834004F45680014637
:100D9B00F6DFE4800B0102040810204080900F570F
:100DAB00E47E019360BCA3FF543F30E509541FFE62
:100DBB00E493A360010ECF54C025E060A840B8E4D3
:100DCB0093A3FAE493A3F8E493A3C8C582C8CAC556
:100DDB0083CAF0A3C8C582C8CAC583CADFE9DEE7E8
:100DEB0080BE8D608B5D8A5E895F12108B8F62E493
:100DFB00F561E56190181993FF747E2561F8A607DC
:100E0B000561E561B410EBE4F5617F7E7B707D10CD
:100E1B001210F0C007C374809562FFE49400C313F3
:100E2B00EF13FD855D66855E67855F68D007AB61F7
:100E3B00120A21E5612560FF7B007A00797E120F93
:100E4B00A60561E561C3940840C022C0E0C0F0C0B4
:100E5B0083C082C0D075D000C000C001C002C003E7
:100E6B00C004C005C006C00753C87F53C8FBE518B4
:100E7B00B401127518027F0085195A7B02E4FDFC40
:100E8B00120EB5800AE518B40305C2A6751800D07A
:100E9B0007D006D005D004D003D002D001D000D0AB
:100EAB00D0D082D083D0F0D0E032855A10855A1141
:100EBB00855A128F158C138D14EB13920AEBA2E14A
:100ECB00920BAFA775A720200D03121165439A044F
:100EDB0053F80F539BEF439A08300C05300902C2AD
:100EEB00FA30F915E5116011300B09A815E2F5A3DD
:100EFB0005158003E4F5A315118FA722C0E0C0F000
:100F0B00C083C082C0D075D008C29FAF27AE26ADBC
:100F1B0025AC247BB07A0F79FC783C1200958F2797
:100F2B008E268D258C24AF2FAE2EAD2DAC2C7BB009
:100F3B007A0F79FC783C1200958F2F8E2E8D2D8C8D
:100F4B002CD0D0D082D083D0F0D0E032021600006B
:100F5B00011800011900021A0000C109C10CC10DD2
:100F6B00C10AC10B01100001110001120001150093
:100F7B00021300000C460C2C0C3B0C480C550C655A
:100F8B000C7404520C850C8E042400000000042CFD
:100F9B000000000002220000C10E008F638B648AE8
:100FAB006589667F801210B08F67E56304FF1200BE
:100FBB00468F68E4FFAB64AA65A9668F82758300D0
:100FCB00120531FE74692FF8A6060FBF10E7E4F582
:100FDB0079F57AFB7A0079677D14020FE88B7B8AAF
:100FEB007C897DE51870FC7518018D19E4FFEFC342
:100FFB009D5018AB7BAA7CA97D8F8275830012054F
:10100B0031FE74002FF8EEF20F80E3AFA7E4F5A7E3
:10101B0075CFFF75CEF4D2A643C8048FA7228F5E7F
:10102B008D5FE55F6005755FFF8003E4F55F7F8093
:10103B001210B08F60E55E04FF1200468F61E4FF73
:10104B0074622FF8A65F0FBF10F6E4F572F573FB11
:10105B007A0079607D14020FE8EFB40A07740D1261
:10106B00106F740A309811A899B8130CC298309865
:10107B00FDA899C298B811F63099FDC299F599223D
:10108B008B638A648965E4FFAB63AA64A965AE07C9
:10109B000F8E8275830012053170ED1FEF75F00610
:1010AB00A42402FF228F7B121125C3EF9517FDEEAF
:1010BB009516FCD3ED94C8EC94004007437B408E0F
:1010CB00168F17AF7B22AB07AA061211258F828EC4
:1010DB0083121125C3EF9582FFEE9583FEC3EF9B21
:1010EB00EE9A40ED22ED131313541FFEEB13131363
:1010FB00541FFDEEC39D5008EF2EF8E4F60E80EC66
:10110B0022E59154045391FB7595F87594067593EC
:10111B00F8759206439104429122AFA775A710531D
:10112B00E67FAD1BAC1A43E6808FA7AE04AF05225A
:10113B0075A710E59854045398FB75A5FE75A46824
:10114B00439804429822751803AFA7E4F5A775CF0F
:10115B00FF75CEFC43C8048FA722E5A1A2E6920C33
:10116B00E5F8540C24FF9209D20D22C0E053917F75
:10117B00051BE51B7002051AD0E032E4F5A775A23A
:10118B000B43A14053F8F343F80122C2A6D2B47F1C
:10119B000A7E001210D102007675E68275F3047593
:1011AB00A8E022E4F5A775E34075E1022275A4409F
:1011BB0075D43F75FE0422E4F5A9E5A930E7FB22BF
:1011CB0075A50375D5FE2275A720759C102200000E
:1011DB0000000000000000000000000000007FFF86
:1011EB00FFFFFFFFFFFFFFFFFFFFFFFFFFFE4000C3
:1011FB0000000000000000000000000000024000A2
:10120B000000000000000000000000000002400091
:10121B000000000000000000000000000002400081
:10122B000000000000000000000000000002400071
:10123B000000000000000000000000000002400061
:10124B000000000000000000000000000002400051
:10125B000000000000000000000000000002400041
:10126B000000000000000000000000000002400031
:10127B000000000000000000000000000002400021
:10128B000000000000800000000018000002400079
:10129B0000000000080007FFE0000600000240000D
:1012AB0000000000C0007FFFFE0003800002400032
:1012BB00000000070003FFFFFF0003E000024000F7
:1012CB0000000038001FFFFFFF8003E0000240001A
:1012DB00000001E0003FFFFFFF8003F00002400031
:1012EB0000000F8000FFFFFFFF8007F800024000A7
:1012FB0000003E0001FFFFFFFE001FF80002400050
:10130B000000FC0003FFFFFFFF80FFF8000240001E
:10131B000003F80007FFFFFFFFFFFFF8000240008C
:10132B000007F00007FFF8003FFFFFF80002400046
:10133B00001FF00007F00000007FFFF800024000E4
:10134B00003FF00003C00000000FFFF00002400060
:10135B00007FF00001F000000003FFE000024000FE
:10136B0000FFF800007FFF800001FFC0000240007B
:10137B0001FFFC0000027FF00000FF800002400034
:10138B0003FFFF000000003C0000FF0000024000D4
:10139B0007FFFFE0000000FE0000FE00000240001F
:1013AB0007FFFFFF8001FFFE0000F8000002400076
:1013BB0007FFFFFFFFFFFFFE0001F00000024000F0
:1013CB0007FFF87FFFFFFFFE0003C0000002400095
:1013DB0007FFE007FFFFFFFC0007000000024000D3
:1013EB0007FF800FFFFFFFF0001C00000002400012
:1013FB0003FF001FFFFFFFE0006000000002400042
:10140B0003FE000FFFFFFF80010000000002400001
:10141B0001FC0007FFFFFC00000000000002400081
:10142B00007C0001FFFFC000000000000002400034
:10143B00001E00000BE00000000000000002400056
:10144B0000078000000000000000000000024000C8
:10145B0000006000000000000000000000024000DF
:10146B00000000000000000000000000000240002F
:10147B00000000000000000000000000000240001F
:10148B00000000000000000000000000000240000F
:10149B0007C21021F1F888008060F8F800024000C4
:1014AB00044210211108C8008060888800024000A7
:1014BB00040210210108C8008090888000024000BF
:1014CB00070210210108E800809088E0000240002C
:1014DB0001C210210108A8008090F83800024000DA
:1014EB00004210210108B8008090880800024000DB
:1014FB00004210210108980081F888080002400082
:10150B0004421021110898008108888800024000CD
:10151B0007C21F21F1F88800F908F8F80002400013
:10152B00000000000000000000000000000240006E
:10153B00000000000000000000000000000240005E
:10154B00000000000000000000000000000240004E
:10155B00000000000000000000000000000240003E
:10156B00000000000000000000000000000240002E
:10157B00000000000000000000000000000240001E
:10158B00000000000000000000000000000240000E
:10159B0000000000000000000000000000024000FE
:1015AB0000000000000000000000000000024000EE
:1015BB0000000000000000000000000000024000DE
:1015CB0000000000000000000000000000024000CE
:1015DB0000000000000000000000000000024000BE
:1015EB0000000000000000000000000000024000AE
:1015FB00000000000000000000000000000240009E
:10160B00000000000000000000000000000240008D
:10161B00000000000000000000000000000240007D
:10162B00000000000000000000000000000240006D
:10163B000000000000000000000000000002407FDE
:10164B00FFFFFFFFFFFFFFFFFFFFFFFFFC0240401D
:10165B0000000000000000000000000004024040F9
:10166B0000000000000000000000000004024040E9
:10167B0000000000000000000000000004024040D9
:10168B0000000000000000000000000004024040C9
:10169B0000000000000000000000000004024040B9
:1016AB0000000000000000000000000004024040A9
:1016BB000000000000000000000000000402404099
:1016CB000000000000000000000000000402404089
:1016DB000000000000000000000000000402404079
:1016EB000000000000000000000000000402404069
:1016FB000000000000000000000000000402404059
:10170B000000000000000000000000000402404048
:10171B000000000000000000000000000402404038
:10172B000000000000000000000000000402404028
:10173B000000000000000000000000000402404018
:10174B000000000000000000000000000402404008
:10175B0000000000000000000000000004024040F8
:10176B0000000000000000000000000004024040E8
:10177B0000000000000000000000000004024040D8
:10178B0000000000000000000000000004024040C8
:10179B0000000000000000000000000004024040B8
:1017AB0000000000000000000000000004024040A8
:1017BB000000000000000000000000000402404098
:1017CB000000000000000000000000000402404088
:1017DB000000000000000000000000000402404078
:1017EB000000000000000000000000000402404068
:1017FB000000000000000000000000000402404058
:10180B000000000000000000000000000402404047
:10181B000000000000000000000000000402404037
:10182B000000000000000000000000000402404027
:10183B000000000000000000000000000402404017
:10184B000000000000000000000000000402404007
:10185B0000000000000000000000000004024040F7
:10186B0000000000000000000000000004024040E7
:10187B0000000000000000000000000004024040D7
:10188B0000000000000000000000000004024040C7
:10189B0000000000000000000000000004024040B7
:1018AB0000000000000000000000000004024040A7
:1018BB000000000000000000000000000402404097
:1018CB000000000000000000000000000402404087
:1018DB000000000000000000000000000402404077
:1018EB000000000000000000000000000402404067
:1018FB000000000000000000000000000402404057
:10190B000000000000000000000000000402404046
:10191B000000000000000000000000000402407FF7
:10192B00FFFFFFFFFFFFFFFFFFFFFFFFFC0240007A
:10193B00000000000000000000000000000240005A
:10194B00000000000000000000000000000240004A
:10195B00000000000000000000000000000240003A
:10196B00000000000000000000000000000240002A
:10197B00000000000000000000000000000240001A
:10198B00000000000000000000000000000240000A
:10199B0000000000000000000000000000024000FA
:1019AB0000000000000000000000000000027FFFAC
:1019BB00FFFFFFFFFFFFFFFFFFFFFFFFFFFE00002B
:1019CB0000000000000000000000000000000020EC
:1019DB00505020C0606010400000000000007020DC
:1019EB0070F810F830F8707000000800807070709C
:1019FB00F070E0F8F8708870388880888870F07024
:101A0B00F078F88888888888F8700070200040008B
:101A1B008000080030008020108060000000000073
:101A2B0000004000000000000030206000000000BB
:101A3B0000000020505078C890202020202000006B
:101A4B000000886088103080400888886060100033
:101A5B00408808888888908080888820109080D85B
:101A6B008888888888802088888888880840001023
:101A7B005000200080000800487880000080200083
:101A8B00000000000000400000000000004020109B
:101A9B00400000000000002050F88010A0404010D3
:101AAB00A820000000089820082050F0801088889B
:101ABB00606020F8200808888880888080808820D3
:101ACB0010A080A8C888888888802088888850883B
:101ADB001040801088001070B07068704088B06043
:101AEB00309020D0B070F068B070E088888888881B
:101AFB00F8402010A80000000000002000507020CB
:101B0B004000401070F800F80010A820101090084A
:101B1B00F02070780000400010106888F08088F08A
:101B2B00F0B8F82010C080A8A888F088F070208842
:101B3B0088A820502040401000000008C8809888DA
:101B4B00E088C82010A020A8C8888898C880408842
:101B5B0088885088108020081000000000000000CA
:101B6B0000F80840A8004010A82060000020C82002
:101B7B002008F80888408808606020F82020A8F822
:101B8B00888088808088882010A08088988880A88A
:101B9B00A008208888A85020404020100000007822
:101BAB00888088F84078882010C020A88888F07832
:101BBB008070408888A8207820402010000000000A
:101BCB00000000000050F098900020202020200002
:101BDB006040882040881088884088106020100062
:101BEB004000A88888889080808888209090808882
:101BFB00888880909008208850A8882080401010FA
:101C0B0000000088888888804008882090A0208861
:101C1B00888880088008489850A8500840402010B9
:101C2B000000000000000020005020186800104049
:101C3B000000400060807070F87010707040706031
:101C4B000040080080207088F070E0F88070887089
:101C5B006088F8888870806888F020702050882011
:101C6B00F870087000FC0078F07078704070887025
:101C7B00609070888870800880F030682050887081
:101C8B00F8302060000000000000000000000000A1
:101C9B000000000000000000000000000000000039
:101CAB000000000000000000000000000000000029
:101CBB000000000000000000000000000000000019
:101CCB000000000000000000000000000000000009
:101CDB0000000000000000000000000000000000F9
:0E1CEB000000000000000000000000000000EB
:00000001FF
