:020000040000FA
:10000000020D0485A75C1200361211CA1211DD120E
:10001000002E1211E41211C01211D412110A121181
:10002000391211981211B6855CA722020E6875A6C6
:0200300040226C
:0D003300020C6DE4F5A77597DE7597AD2200
:10004300020076EF540FC454F0FEEF54F0C4540F83
:100053004EFF543325E025E0FEEF54CC1313543FF9
:0F0063004EFF545525E0FEEF54AAC3134EFF2263
:10007300021188C0D075D000C007AFA7D20E75A7F4
:10008300108FA7D007D0D032020F190201BBE8644A
:1000930080F8E933E83360110460F0ED33EC33703A
:1000A30009E8FCE9FDEAFEEBFF220460DED3EB9FE7
:1000B300EA9EE99DE8C2E78CF0C2F795F0400CE8B0
:1000C300CCF8E9CDF9EACEFAEBCFFB12018685D065
:1000D300F05804700320D5B3E80470075002B2D57A
:1000E3000201C592D5EC0460F7E4CCC0E0C398F8F4
:1000F300603B94186008400DD0E0FB02019DE4FBD7
:10010300FAC9FC8028E830E406E4C9FBE4CAFCE849
:1001130030E305E4C9CACBFCE854076010F8C3E92F
:1001230013F9EA13FAEB13FBEC13FCD8F130F52FB8
:10013300C3E49CFCEF9BFFEE9AFEED99FDD0E0FB40
:10014300EF4E4D4C701222DB030201C2EC2CFCEF8C
:1001530033FFEE33FEED33FDED30E7EB02019DEFB0
:100163002BFFEE3AFEED39FDD0E0FB50130BBB0045
:10017300030201C5ED13FDEE13FEEF13FFEC13FCB9
:1001830002019DE9D2E7C933E833F892D5EDD2E70E
:10019300CD33EC33FC5002B2D522EC30E7100FBF65
:1001A300000C0EBE00080DBD00040BEB6014A2D5BD
:1001B300EB13FCED92E7FD2274FFFCFDFEFF22E44E
:1001C30080F8A2D574FF13FC7D80E480EFF920E76B
:1001D3002824F950037907E4F42402FB18DBFDE635
:1001E30024FB5014E9600DE4F618E604F6B40A089B
:1001F300E4F6D9F57401F60A22C2D522ED33EC33C5
:1002030092D5FA602AB4FF33EDC2E77BFF60067A2A
:10021300027924E4227A02792D20D5047A027928FE
:10022300224E614E002B494E46002D494E4600E4B6
:100233007A08F608DAFC7B00740722E8C0E0ECC019
:10024300E0EDC0E0EEC0E0EFC0E0EA75F010A4CA54
:10025300ABF075F04DA42BFBE435F0FCEA2410FA67
:10026300EB34C5FBEC34D9FCEDC2E7FF75F056A4C3
:10027300F42411C5F0F434C58FF0A42AE5F03BE46F
:100283003CF620E7141204D8D0E0FFD0E0FED0E023
:10029300FDD0E0FC12040B8014F4041204D8D0E067
:1002A300FFD0E0FED0E0FDD0E0FC120302D0E0F886
:1002B300E6FAEDD2E7CD33EC332482FBE4C3CF334C
:1002C300CFCE33CECD33CD33DBF37B0775F00A844A
:1002D3006004F6081B0AE5F0F6088FF0740AA4FF21
:1002E300ACF08EF0740AA42CFEACF050010C8DF02F
:1002F300740AA42CFDE435F0F608DBDE740722EC67
:100303004D6011E8497017ED33EC3304600DE4FCE4
:10031300FFFEFD22E933E8330470F80201BB12014A
:100323008658046009E4CC24815006285009020150
:10033300C52840030201C2C0E0EB4A7044B98006FD
:10034300D0E0FB0201B1EF4E701CBD8008EBFFEA69
:10035300FEE9FD80EBE98DF0A4FEE5F00203EBE995
:10036300CDF9EAFEEBFFEF89F0A4FCE5F0CE89F0CE
:10037300A42EFFE435F0CD89F0A42DFEE435F08002
:1003830067EF4E7005BD80D780C3EF8BF0A4ACF050
:10039300EE8BF0A42CFCE435F0F8EF8AF0A42CE506
:1003A300F038FCE433CB8DF0A42CFCE5F03BF8EE05
:1003B3008AF0A42CFCE5F038F8E433CF89F0A42CC0
:1003C300FCE5F038CF3400CE89F0A42FFFE5F03EF2
:1003D300FEE433C98DF0A42EFEE5F039CD8AF0A4F6
:1003E3002FFFE5F03EFEE43DFD33D0E0FB50070B6D
:1003F300BB000F0201C5EC2CFCEF33FFEE33FEED27
:1004030033FD02019D0201C5EC5D046005E859045A
:1004130070030201BB120186580460F6EC4860F2D7
:10042300EC7004FDFEFF22C860DB2481C85009C3C1
:1004330098600250060201C29850CAF582E9294B1E
:100443004A7005AB820201B175F0007C1A7880C353
:10045300EF9BEE9AED99400DC3EF9BFFEE9AFEEDF5
:1004630099FDE842F0DC23ACF0D0E0FFD0E0FED011
:10047300E0FDAB8220E7101BEB60BAEC2CFCEF3302
:10048300FFEE33FEED33FD02019DE803F830E7058F
:10049300C0F075F000EF2FFFEE33FEED33FD40B8F3
:1004A30030E7C280AA3F8000004120000042C8001C
:1004B30000447A0000461C400047C350004974249E
:1004C300004B1896804CBEBC205A0E1BCA6753C201
:1004D3001C749DC5AEFB60065407601C23231205E4
:1004E30006EB543860091204F2120501120302EC00
:1004F300F8EDF9EEFAEFCB22EB12050180F1543857
:1005030003241C9004A8FE93FC0EEE93FD0EEE93C1
:100513000ECE93FF22BB010689828A83E02250021A
:10052300E722BBFE02E32289828A83E49322BB0192
:100533000CE58229F582E5833AF583E0225006E94A
:100543002582F8E622BBFE06E92582F8E222E5824F
:1005530029F582E5833AF583E49322BB0106898278
:100563008A83F0225002F722BBFE01F322ECF60845
:10057300EDF608EEF608EFF622FAE6FB0808E6F9D0
:1005830025F0F618E6CA3AF622D083D082F8E4932F
:100593007012740193700DA3A393F8740193F58201
:1005A3008883E4737402936860EFA3A3A380DFE5F9
:1005B30073245FF8E6057322785C300702785FE402
:1005C30075F00112057C0205182000EB7F2ED20086
:1005D3008018EF540F2490D43440D4FF30040BEF31
:1005E30024BFB41A0050032461FFE574600215743C
:1005F3000577E5777002057630070D785CE475F0D2
:100603000112057CEF02055E0210627403D20780BB
:1006130003E4C207F5738B5C8A5D895EE4F574F5C8
:1006230076F577E57460077F201205ED80F5757523
:10063300FFC201C200C202C203C205C206C208123F
:1006430005BBFF700D3007057F001205FEAF77AEC7
:100653007622B4255FC2D5C2041205BBFF24D0B4F1
:100663000A00501A75F00A787430D50508B6FF01F0
:1006730006C6A426F620D5047002D20380D924CF5F
:10068300B41A00EF5004C2E5D2040208EBD2018091
:10069300C6D20080C0D20280BCD2D580BAD2058037
:1006A300B47F201205ED2002077401B5740040F1F8
:1006B3001205B2FF1205ED020626D208D206809576
:1006C3001205B2FB1205B2FA1205B2F94A4B7006D3
:1006D30079E27A097BFF20022EE574602A7E008E80
:1006E3008275830012053160060EEE657570F0C2E7
:1006F300D5EBC0E0EAC0E0E9C0E0EE12094BD0E080
:10070300F9D0E0FAD0E0FB120518FF60AAEBC0E0D5
:10071300EAC0E0E9C0E01205EDD0E02401F9D0E041
:100723003400FAD0E0FBE5750460DCD575D9808729
:10073300D20280A212092E60F7E57570010412013E
:10074300D0A975600DE575600914F5751209D5EF2B
:1007530060F3EA30E702F404C3995077EAF42575AD
:100763000430E701E404F575800D12092E60C1EA37
:10077300057525751201D0EA7872F630E701E42594
:100783007504D575042005011412094BE4C0E01269
:1007930009D57872E6601320E70714F61205D580B1
:1007A3002204F6D0E014C0E07F001205D5E57560A1
:1007B300071205CC1575800B3005031205CCD0E06C
:1007C300020626D0E00480C512092E60A0E5750458
:1007D3001201D07872EAF6E575200502600104245F
:1007E3000412094B74FF04C0E01209D51205D5E5C4
:1007F3007520050260031205CCD0E0B575E87F458E
:100803001205DF7872E67F2B30E7047F2DF404C0F6
:10081300E01205EDD0E075F00A84C0F01205D6D0E1
:10082300E01205D6020626791080027908C206C2B4
:10083300088008D2D5790A8004790AC2D5E57504FF
:100843007002F575E4FAFDFEFF1205B2FC7B082089
:1008530001131205B2FD7B1030000A1205B2FE121D
:1008630005B2FF7B20EC3382D592D55013C3E4301D
:1008730000069FFFE49EFEE42001039DFDE49CFC33
:10088300E4CBF8C201EC700CCFCECDCCE824F8F861
:1008930070F38017C3EF33FFEE33FEED33FDEC331C
:1008A300FCEB33FB994002FB0FD8E9EB300105F871
:1008B300D0E0C448B201C0E00AEC4D4E4F78207B33
:1008C3000070C2EAB5750040BCC0E012094DD0F01B
:1008D300D0E0200104C4C0E0C4B201C0F01205D6C8
:1008E300D0F0D5F0EB02062612058C06C353082A76
:1008F3005806944C069042082E4F08364408364951
:1009030006A943083C55076D4607CB450737470AF9
:10091300025006982D069C2E06BF2B06A02306BD6B
:100923002009EB2A065848000006B7E575B4FF0313
:100933007575061205B2FC1205B2FD1205B2FE1260
:1009430005B2FF786B0201FF790AA2D520031430A8
:100953000509B910020404B9080104A2D52006024E
:100963005001042002689202B574005034C0E07F45
:10097300203003197F30A20272067205500F12094C
:10098300A4C202C206C205C2087F30800F3005032D
:10099300E9C0E01205ED300503D0E0F9D0E0B5740D
:1009A300CC3005177F30B9100C1205ED7F58300499
:1009B300077F788003B908031205ED3002057F2D08
:1009C3000205ED7F202008F87F2B2006F3229202F8
:1009D30080CF7F00B407005005246BF8E6FF222880
:1009E3006E756C6C2900D2011205B23001F8C20198
:1009F300787430D50108F60206582D504349581231
:100A030005B22403B405004001E49009FD931205E7
:100A1300DE743A1205DED20375740402082A12004A
:100A2300031211A8C294D2AF755FFF75600D756193
:100A330090AF27AE26AD25AC248F658E648D638C75
:100A4300627B007A00794012060E7B007A007940BF
:100A53007D0A120DFFD2AF7597A5755FFF75600D07
:100A63007561A2AF27AE26AD25AC248F658E648D4C
:100A7300638C627B007A00794012060E7B007A0059
:100A830079407D0A120DFF300ECBAF3FAE3EAD3D38
:100A9300AC3C0523E523AA22700205221425E02598
:100AA300E02428F8120570D3E5239404E52264803A
:100AB30094804005E4F522F523E4F53FF53EF53D4A
:100AC300F53C755FFF75600D7561B4AF2BAE2AAD54
:100AD30029AC288F658E648D638C62FB7A00794024
:100AE30012060E7B007A0079407D19120DFF755FA7
:100AF300FF75600D7561C3AF2FAE2EAD2DAC2C8F7E
:100B0300658E648D638C627B007A00794012060ED9
:100B13007B007A0079407D28120DFF755FFF7560B9
:100B23000D7561D2AF33AE32AD31AC308F658E64AB
:100B33008D638C627B007A00794012060E7B007A0B
:100B43000079407D37120DFF755FFF75600D75618C
:100B5300E1AF37AE36AD35AC348F658E648D638CC3
:100B6300627B007A00794012060E7B007A0079409E
:100B73007D46120DFF755FFF75600D7561F0AF3B2C
:100B8300AE3AAD39AC388F658E648D638C627B0071
:100B93007A00794012060E7B007A0079407D551267
:100BA3000DFFC20E020A588F628D638B64AB65AA78
:100BB30066A9671205187003020C6CF568C364809C
:100BC30094A04009D3E568648094FE4003756820CF
:100BD300E563D394784002807CAF68EF3395E0FE01
:100BE30075F064E564A42FF582E5F03EF583E582B4
:100BF30024CBF582E5833419F583E493F9E5631394
:100C03001313541F2562FDF8C000E6FA08E6FBE55E
:100C1300635407FCE47EFFA804088005CEC313CE0B
:100C230013D8F9F4FFEEF45AFEEB5FD000A60608E2
:100C3300F6A805C000E6FA08E6FBE9FEE4A8040806
:100C43008005CEC313CE13D8F9FFEA4EFEEB4FD087
:100C530000A60608F674012567F567E43566F566B0
:100C630074062563F563020BB022C0E0C0F0C083B5
:100C7300C082C0D075D000C000C001C002C003C094
:100C830004C005C006C00775A720E5F854F0F44476
:100C93000F52F8AF9BEF30E34DE5106031E5A12033
:100CA300E02C300A13851482851383E5A3F0051421
:100CB300E51470070513800385A35BD5100D300C75
:100CC30005300902D2FA1211638003851012E5116F
:100CD300601430F911300B09A815E2F5A30515804E
:100CE3000375A3001511D007D006D005D004D00397
:100CF300D002D001D000D0D0D082D083D0F0D0E0C9
:100D030032787FE4F6D8FD75818C020D4B020A21FF
:100D1300E493A3F8E493A34003F68001F208DFF41D
:100D23008029E493A3F85407240CC8C333C4540F95
:100D33004420C8834004F456800146F6DFE4800B68
:100D43000102040810204080901027E47E01936084
:100D5300BCA3FF543F30E509541FFEE493A3600195
:100D63000ECF54C025E060A840B8E493A3FAE493FF
:100D7300A3F8E493A3C8C582C8CAC583CAF0A3C8AD
:100D8300C582C8CAC583CADFE9DEE780BE4C4150CD
:100D93002074696D6520252E3266207365630054C7
:100DA3004F542074696D6520252E32662073656368
:100DB300004C4150203120252E326620736563009C
:100DC3004C4150203220252E326620736563004C3F
:100DD3004150203320252E326620736563004C4139
:100DE30050203420252E326620736563004C415019
:100DF300203520252E326620736563008D5F8B5C62
:100E03008A5D895E1210898F61E4F560E560901850
:100E13002B93FF747D2560F8A6070560E560B41089
:100E2300EBE4F5607F7D7B707D101210EEC007C38D
:100E330074809561FFE49400C313EF13FD855C6533
:100E4300855D66855E67D007AB60120BAAE56025FA
:100E53005FFF7B007A00797D120F690560E560C34F
:100E6300940840C022C0E0C0F0C083C082C0D075E7
:100E7300D000C000C001C002C003C004C005C0064A
:100E8300C00753C87F53C8FBE518B4011275180295
:100E93007F0085195A7B02E4FDFC120EC7800AE528
:100EA30018B40305C2A6751800D007D006D005D024
:100EB30004D003D002D001D000D0D0D082D083D0D0
:100EC300F0D0E032855A10855A11855A128F158C4D
:100ED300138D14EB13920AEBA2E1920BAFA775A744
:100EE30020200D03121177439A0453F80F539BEFFD
:100EF300439A08300C05300902C2FA30F915E5119E
:100F03006011300B09A815E2F5A305158003E4F57C
:100F1300A315118FA722C0E0C0F0C083C082C0D048
:100F230075D008C29FAF27AE26AD25AC247BB07A1F
:100F33000F79FC783C1200958F278E268D258C2403
:100F4300AF3FAE3EAD3DAC3C7BB07A0F79FC783C15
:100F53001200958F3F8E3E8D3D8C3CD0D0D082D0F9
:100F630083D0F0D0E0328F628B638A6489657F809F
:100F73001210AE8F66E56204FF1200468F67E4FF2E
:100F8300AB63AA64A9658F82758300120531FE7471
:100F9300682FF8A6060FBF10E7E4F578F579FB7A1A
:100FA3000079667D14020FAB8B7A8A7B897CE51806
:100FB30070FC7518018D19E4FFEFC39D5018AB7ACF
:100FC300AA7BA97C8F82758300120531FE74002FE2
:100FD300F8EEF20F80E3AFA7E4F5A775CFFF75CE68
:100FE300F4D2A643C8048FA7228F5D8D5EE55E60B1
:100FF30005755EFF8003E4F55E7F801210AE8F5FA0
:10100300E55D04FF1200468F60E4FF74612FF8A6CC
:101013005E0FBF10F6E4F571F572FB7A00795F7D20
:1010230014020FAB02160000011800011900021A86
:101033000000C109C10CC10DC10AC10B011000019F
:101043001100011200011500021300000424000026
:101053000000043C0000000002220000C10E00EF6B
:10106300B40A07740D12106D740A309811A899B858
:10107300130CC2983098FDA899C298B811F630990C
:10108300FDC299F599228B628A638964E4FFAB629E
:10109300AA63A964AE070F8E8275830012053170AF
:1010A300ED1FEF75F006A42402FF228F7A1211239D
:1010B300C3EF9517FDEE9516FCD3ED94C8EC9400A1
:1010C3004007437A408E168F17AF7A22AB07AA06E2
:1010D3001211238F828E83121123C3EF9582FFEEA9
:1010E3009583FEC3EF9BEE9A40ED22ED1313135449
:1010F3001FFEEB131313541FFDEEC39D5008EF2E79
:10110300F8E4F60E80EC22E59154045391FB7595B7
:10111300F87594067593F8759206439104429122EB
:10112300AFA775A71053E67FAD1BAC1A43E6808FBC
:10113300A7AE04AF052275A710E59854045398FB96
:1011430075A5FE75A468439804429822E4F55CE40F
:10115300FDAF5C120FEC055CE55CC3948040F022AC
:10116300751803AFA7E4F5A775CFFF75CEFC43C889
:10117300048FA722E5A1A2E6920CE5F8540C24FF04
:101183009209D20D22C0E053917F051BE51B70022B
:10119300051AD0E032E4F5A775A20B43A14053F83A
:1011A300F343F80122C2A6D2B47F0A7E001210CF05
:1011B30002114F75E68275F30475A8E022E4F5A7E2
:1011C30075E34075E1022275A44075D43F75FE04B2
:1011D30022E4F5A9E5A930E7FB2275A50375D5FE41
:1011E3002275A720759C102200000000000000005B
:1011F30000000000000000007FFFFFFFFFFFFFFF74
:10120300FFFFFFFFFFFFFFFE4000000000000000A4
:101213000000000000000002400000000000000089
:101223000000000000000002400000000000000079
:101233000000000000000002400000000000000069
:101243000000000000000002400000000000000059
:101253000000000000000002400000000000000049
:101263000000000000000002400000000000000039
:101273000000000000000002400000000000000029
:101283000000000000000002400000000000000019
:101293000000000000000002400000000000008089
:1012A30000000000180000024000000000000800D9
:1012B30007FFE00006000002400000000000C0003D
:1012C3007FFFFE00038000024000000000070003D0
:1012D300FFFFFF0003E00002400000000038001F92
:1012E300FFFFFF8003E000024000000001E0003F39
:1012F300FFFFFF8003F00002400000000F8000FFAB
:10130300FFFFFF8007F80002400000003E0001FFDE
:10131300FFFFFE001FF8000240000000FC0003FF77
:10132300FFFFFF80FFF8000240000003F80007FF03
:10133300FFFFFFFFFFF8000240000007F00007FF78
:10134300F8003FFFFFF800024000001FF00007F025
:101353000000007FFFF800024000003FF00003C0E0
:101363000000000FFFF000024000007FF00001F0DA
:1013730000000003FFE00002400000FFF800007FD0
:10138300FF800001FFC00002400001FFFC000002DB
:101393007FF00000FF800002400003FFFF00000019
:1013A300003C0000FF000002400007FFFFE00000D8
:1013B30000FE0000FE000002400007FFFFFF800167
:1013C300FFFE0000F8000002400007FFFFFFFFFFE1
:1013D300FFFE0001F0000002400007FFF87FFFFF5F
:1013E300FFFE0003C0000002400007FFE007FFFF0D
:1013F300FFFC000700000002400007FF800FFFFF13
:10140300FFF0001C00000002400003FF001FFFFF6D
:10141300FFE0006000000002400003FE000FFFFF3A
:10142300FF80010000000002400001FC0007FFFFF5
:10143300FC000000000000024000007C0001FFFFF0
:10144300C0000000000000024000001E00000BE08E
:1014530000000000000000024000000780000000C0
:1014630000000000000000024000000060000000D7
:101473000000000000000002400000000000000027
:101483000000000000000002400000000000000017
:101493000000000000000002400000000000000007
:1014A3000000000000000002400007C21021F1F814
:1014B30088008060F8F800024000044210211108FF
:1014C300C8008060888800024000040210210108DF
:1014D300C8008090888000024000070210210108A4
:1014E300E800809088E00002400001C2102101085A
:1014F300A8008090F8380002400000421021010843
:10150300B8008090880800024000004210210108C2
:10151300980081F888080002400004421021110855
:101523009800810888880002400007C21F21F1F853
:101533008800F908F8F800024000000000000000ED
:101543000000000000000002400000000000000056
:101553000000000000000002400000000000000046
:101563000000000000000002400000000000000036
:101573000000000000000002400000000000000026
:101583000000000000000002400000000000000016
:101593000000000000000002400000000000000006
:1015A30000000000000000024000000000000000F6
:1015B30000000000000000024000000000000000E6
:1015C30000000000000000024000000000000000D6
:1015D30000000000000000024000000000000000C6
:1015E30000000000000000024000000000000000B6
:1015F30000000000000000024000000000000000A6
:101603000000000000000002400000000000000095
:101613000000000000000002400000000000000085
:101623000000000000000002400000000000000075
:101633000000000000000002400000000000000065
:101643000000000000000002400000000000000055
:101653000000000000000002407FFFFFFFFFFFFFCC
:10166300FFFFFFFFFFFFFC024040000000000000FF
:1016730000000000000004024040000000000000E1
:1016830000000000000004024040000000000000D1
:1016930000000000000004024040000000000000C1
:1016A30000000000000004024040000000000000B1
:1016B30000000000000004024040000000000000A1
:1016C3000000000000000402404000000000000091
:1016D3000000000000000402404000000000000081
:1016E3000000000000000402404000000000000071
:1016F3000000000000000402404000000000000061
:101703000000000000000402404000000000000050
:101713000000000000000402404000000000000040
:101723000000000000000402404000000000000030
:101733000000000000000402404000000000000020
:101743000000000000000402404000000000000010
:101753000000000000000402404000000000000000
:1017630000000000000004024040000000000000F0
:1017730000000000000004024040000000000000E0
:1017830000000000000004024040000000000000D0
:1017930000000000000004024040000000000000C0
:1017A30000000000000004024040000000000000B0
:1017B30000000000000004024040000000000000A0
:1017C3000000000000000402404000000000000090
:1017D3000000000000000402404000000000000080
:1017E3000000000000000402404000000000000070
:1017F3000000000000000402404000000000000060
:10180300000000000000040240400000000000004F
:10181300000000000000040240400000000000003F
:10182300000000000000040240400000000000002F
:10183300000000000000040240400000000000001F
:10184300000000000000040240400000000000000F
:1018530000000000000004024040000000000000FF
:1018630000000000000004024040000000000000EF
:1018730000000000000004024040000000000000DF
:1018830000000000000004024040000000000000CF
:1018930000000000000004024040000000000000BF
:1018A30000000000000004024040000000000000AF
:1018B300000000000000040240400000000000009F
:1018C300000000000000040240400000000000008F
:1018D300000000000000040240400000000000007F
:1018E300000000000000040240400000000000006F
:1018F300000000000000040240400000000000005F
:10190300000000000000040240400000000000004E
:10191300000000000000040240400000000000003E
:10192300000000000000040240400000000000002E
:101933000000000000000402407FFFFFFFFFFFFFE5
:10194300FFFFFFFFFFFFFC0240000000000000005C
:101953000000000000000002400000000000000042
:101963000000000000000002400000000000000032
:101973000000000000000002400000000000000022
:101983000000000000000002400000000000000012
:101993000000000000000002400000000000000002
:1019A30000000000000000024000000000000000F2
:1019B30000000000000000024000000000000000E2
:1019C30000000000000000027FFFFFFFFFFFFFFF9A
:1019D300FFFFFFFFFFFFFFFE00000000000000000D
:1019E30000000000000000000020505020C0606094
:1019F3001040000000000000702070F810F830F86C
:101A030070700000080080707070F070E0F8F8707B
:101A13008870388880888870F070F078F8888888B3
:101A23008888F870007020004000800008003000B3
:101A330080201080600000000000000040000000D3
:101A43000000003020600000000000000020505023
:101A530078C8902020202020000000008860881093
:101A63003080400888886060100040880888888833
:101A7300908080888820109080D888888888888083
:101A83002088888888880840001050002000800043
:101A9300080048788000008020000000000000005B
:101AA3004000000000000040201040000000000043
:101AB300002050F88010A0404010A820000000082B
:101AC3009820082050F080108888606020F8200853
:101AD3000888888088808080882010A080A8C88893
:101AE30088888880208888885088104080108800E3
:101AF3001070B07068704088B060309020D0B070C3
:101B0300F068B070E08888888888F8402010A800C2
:101B1300000000000020005070204000401070F8CA
:101B230000F80010A82010109008F0207078000032
:101B3300400010106888F08088F0F0B8F82010C0DA
:101B430080A8A888F088F070208888A820502040BA
:101B5300401000000008C8809888E088C82010A0C2
:101B630020A8C8888898C8804088888850881080B2
:101B73002008100000000000000000F80840A80042
:101B83004010A82060000020C8202008F8088840E2
:101B93008808606020F82020A8F8888088808088E2
:101BA300882010A08088988880A8A008208888A80A
:101BB30050204040201000000078888088F840784A
:101BC300882010C020A88888F0788070408888A872
:101BD300207820402010000000000000000000508A
:101BE300F09890002020202020006040882040882A
:101BF300108888408810602010004000A8888888DA
:101C03009080808888209090808888888090900831
:101C1300208850A888208040101000000088888801
:101C230088804008882090A02088888880088008C1
:101C3300489850A8500840402010000000000000C1
:101C43000020005020186800104000004000608011
:101C53007070F87010707040706000400800802051
:101C63007088F070E0F8807088706088F8888870F9
:101C7300806888F0207020508820F870087000FC7D
:101C83000078F07078704070887060907088887009
:101C9300800880F0306820508870F83020600000A1
:101CA3000000000000000000000000000000000031
:101CB3000000000000000000000000000000000021
:101CC3000000000000000000000000000000000011
:101CD3000000000000000000000000000000000001
:101CE30000000000000000000000000000000000F1
:101CF30000000000000000000000000000000000E1
:081D03000000000000000000D8
:00000001FF
