:020000040000FA
:100000000202718B2F8A308931E4FFAB2FAA30A90D
:1000100031AE070F8E8275830012053F70ED1FEF22
:1000200075F006A42402FF22C294320203D175A601
:0200300040226C
:100033000201DA75A20B43A14053F8F343F80122FE
:10004300020028EF540FC454F0FEEF54F0C4540FD1
:100053004EFF543325E025E0FEEF54CC1313543FF9
:0F0063004EFF545525E0FEEF54AAC3134EFF2263
:100073000208268F2F8D308B31AB32AA33A934126D
:1000830005267003020138F535C3648094A0400946
:10009300D3E535648094FE4003753520E530D39471
:1000A300784002807CAF35EF3395E0FE75F064E570
:1000B30031A42FF582E5F03EF583E582249DF58298
:1000C300E5833410F583E493F9E530131313541FD8
:1000D300252FFDF8C000E6FA08E6FBE5305407FCDF
:1000E300E47EFFA804088005CEC313CE13D8F9F429
:1000F300FFEEF45AFEEB5FD000A60608F6A805C093
:1001030000E6FA08E6FBE9FEE4A804088005CEC38E
:1001130013CE13D8F9FFEA4EFEEB4FD000A6060824
:10012300F674012534F534E43533F533740625309C
:10013300F53002007C228F2A8B2CA905C37480958D
:100143002FFFE9D39F40030201D9E4FDE52F1313E9
:1001530013541FFFEDC39F507DEF852CF0A4FFEDDB
:100163007A002FFFEA35F0FEE52E2FF582E52D3ECE
:10017300F583E493F530E9131313541F252AF5315E
:10018300F8C000E6FA08E6FBE95407FCE47EFFA8A2
:1001930004088005CEC313CE13D8F9F4FFEEF45A46
:1001A300FEEB5FD000A60608F6A831C000E6FA0809
:1001B300E6FBE530FEE4A804088005CEC313CE13A6
:1001C300D8F9FFEA4EFEEB4FD000A60608F67408F6
:1001D30029F90D02014F22C0E0C0F0C083C082C0E4
:1001E300D075D000C000C001C002C003C004C00568
:1001F300C006C00775A720E5F854F0F4440F52F881
:10020300AF9BEF30E34DE5186031E5A120E02C30E2
:100213000113851C82851B83E5A3F0051CE51C7077
:1002230007051B800385A326D5180D300305300071
:1002330002D2FA1207EE800385181AE5196014300A
:10024300F911300209A81DE2F5A3051D800375A36A
:10025300001519D007D006D005D004D003D002D0A2
:1002630001D000D0D0D082D083D0F0D0E032787FDC
:10027300E4F6D8FD75815D0202B80204DFE493A3BE
:10028300F8E493A34003F68001F208DFF48029E445
:1002930093A3F85407240CC8C333C4540F4420C891
:1002A300834004F456800146F6DFE4800B01020428
:1002B30008102040809005EFE47E019360BCA3FF0B
:1002C300543F30E509541FFEE493A360010ECF545D
:1002D300C025E060A840B8E493A3FAE493A3F8E44C
:1002E30093A3C8C582C8CAC583CAF0A3C8C582C8B8
:1002F300CAC583CADFE9DEE780BE302E204E6F72A7
:100303006D616C204D6F646500312E2049646C650E
:10031300204D6F646500322E2053746F70204D6F33
:10032300646500332E2053757370656E64204D6FC2
:10033300646500342E20536E6F6F7A65204D6F64B1
:100343006500352E2053687574646F776E204D6F8A
:100353006465002A4163746976652A002A57616BD4
:100363006575702A008D2C8B298A2A892B1200032C
:100373008F2EE4F52DE52D900EFD93FF744E252D64
:10038300F8A607052DE52DB410EBE4F52D7F4E7B84
:10039300707D10120779C007C37480952EFFE49413
:1003A30000C313EF13FD852932852A33852B34D0FF
:1003B30007AB2D120076E52D252CFF7B007A007903
:1003C3004E12056C052DE52DC3940840C022C0E0F4
:1003D300C0F0C083C082C0D075D000C000C001C0CF
:1003E30002C003C004C005C006C00753C87F53C87A
:1003F300FBE54AB40112754A027F00854B257B0257
:10040300E4FDFC12048D800AE54AB40305C2A67517
:100413004A00D007D006D005D004D003D002D001C3
:10042300D000D0D0D082D083D0F0D0E0328F281249
:1004330008361206A0801F120852EF70FA120852F3
:10044300EF60FA120852EF30E0230528E528D39431
:10045300054003E4F528E52825E02408F8E6FE082E
:10046300E6AA06F97BFF7D5812036880CA12085278
:10047300EF30E1C3120852EF70FAAA14A9157BFFFB
:100483007D60120368D294AF28228525188525192B
:1004930085251A8F1D8C1B8D1CEB139201EBA2E19A
:1004A3009202AFA775A720200403120815439A04EC
:1004B30053F80F539BEF439A08300305300002C2F1
:1004C300FA30F915E5196011300209A81DE2F5A308
:1004D300051D8003E4F5A315198FA722E4F5271260
:1004E30006CF120852EF70FAC294D2AFAF271204AC
:1004F300308F27E527B4050312089F5391FB20A6ED
:10050300FD75F14475F21175F34075F410AF2712C0
:10051300066775F49F75F37F75F2FF75F1FF4391DD
:100523000480C9BB010689828A83E0225002E72244
:10053300BBFE02E32289828A83E49322BB010CE59A
:100543008229F582E5833AF583E0225006E9258284
:10055300F8E622BBFE06E92582F8E222E58229F5C8
:1005630082E5833AF583E493228F2F8B308A318996
:10057300327F801207188F33E52F04FF1200468F56
:1005830034E4FFAB30AA31A9328F827583001205A0
:100593003FFE74352FF8A6060FBF10E7E4F545F5C7
:1005A30046FB7A0079337D140205AE8B478A48896E
:1005B30049E54A70FC754A018D4BE4FFEFC39D503A
:1005C30018AB47AA48A9498F8275830012053FFEDD
:1005D30074002FF8EEF20F80E3AFA7E4F5A775CF11
:1005E300FF75CEF4D2A643C8048FA722021E0000D3
:1005F300014A00014B00024C0000C100C103C104C9
:10060300C101C102011800011900011A00011D00F6
:10061300021B00000C0802FD030C0319032603361A
:10062300034504140356035F008F2A8D2BE52B60CB
:1006330005752BFF8003E4F52B7F801207188F2CA1
:10064300E52A04FF1200468F2DE4FF742E2FF8A62F
:100653002B0FBF10F6E4F53EF53FFB7A00792C7DB6
:10066300140205AE8F281207C48F29E528146015DC
:1006730014601514601514601714601D2405701C94
:1006830030821980FB0208440208021206F4800338
:100693001207391207C48F292212086C22E4F529A4
:1006A3007F4E1208607F4E752D08752EBD752F8005
:1006B300AB29E4FD1201397B007A00794EAF291290
:1006C300056C0529E529C3948040D52285A7281206
:1006D300087812088C1208AF12002E1208B61208FE
:1006E300821208961207951200361208A88528A7C9
:1006F30022AFA7E4F5A7AEA8C2AFADA943EF08F5B3
:10070300A9E5A930E7FB43CD408DA9E5A930E7FB77
:100713008EA88FA7228F471207AEC3EF951FFDEE5A
:10072300951EFCD3ED94C8EC940040074347408EDC
:100733001E8F1FAF4722AFA7E4F5A7AEA8C2AFAD88
:10074300A9F5A9E5A930E7FB43CD808DA9E5A9303B
:10075300E7FB8EA88FA722AB07AA061207AE8F82EC
:100763008E831207AEC3EF9582FFEE9583FEC3EF30
:100773009BEE9A40ED22ED131313541FFEEB13135C
:1007830013541FFDEEC39D5008EF2EF8E4F60E80C0
:10079300EC22E59154045391FB7595F87594067515
:1007A30093F8759206439104429122AFA775A7105F
:1007B30053E67FAD4DAC4C43E6808FA7AE04AF0547
:1007C30022AFA7E4F5A7AEA8C2AFE5AA543F53AA48
:1007D300C08EA88FA7FF22E4F529E4FDAF291206F6
:1007E3002C0529E529C3948040F022754A03AFA75D
:1007F300E4F5A775CFFF75CEFC43C8048FA722C2CB
:10080300AFE4F5A743EF08F5A9E5A930E7FB438774
:100813000222E5A1A2E69203E5F8540C24FF92001C
:10082300D20422C0E053917F054DE54D7002054C83
:10083300D0E032C2A6D2B47F0A7E0012075A020762
:10084300DAAFA7E4F5A74387018587878FA722E45B
:10085300FF2083030F80052082027F0222E4FEEF44
:100863002EF8E4F60EBE10F722C2AFE4F5A743C993
:100873000843870222E4F5A77597DE7597AD22E456
:10088300F5A775E34075E1022275A44075D43F7561
:10089300FE0422E4F5A9E5A930E7FB221207DA20DA
:1008A300A6FDC2B42275E68275A8602275A50375FC
:1008B300D5FE2275A720759C1022000000000000C1
:1008C300000000000000000000007FFFFFFFFFFFAB
:1008D300FFFFFFFFFFFFFFFFFFFE400000000000E0
:1008E30000000000000000000002400000000000C3
:1008F30000000000000000000002400000000000B3
:1009030000000000000000000002400000000000A2
:100913000000000000000000000240000000000092
:100923000000000000000000000240000000000082
:100933000000000000000000000240000000000072
:100943000000000000000000000240000000000062
:100953000000000000000000000240000000000052
:100963000000000000000000000240000000000042
:10097300008000000000180000024000000000009A
:10098300080007FFE000060000024000000000002E
:10099300C0007FFFFE00038000024000000000074C
:1009A3000003FFFFFF0003E00002400000000038E7
:1009B300001FFFFFFF8003E000024000000001E092
:1009C300003FFFFFFF8003F00002400000000F80A4
:1009D30000FFFFFFFF8007F80002400000003E0019
:1009E30001FFFFFFFE001FF8000240000000FC00B3
:1009F30003FFFFFFFF80FFF8000240000003F80041
:100A030007FFFFFFFFFFFFF8000240000007F000B1
:100A130007FFF8003FFFFFF800024000001FF0004F
:100A230007F00000007FFFF800024000003FF000E5
:100A330003C00000000FFFF000024000007FF00041
:100A430001F000000003FFE00002400000FFF80097
:100A5300007FFF800001FFC00002400001FFFC0097
:100A630000027FF00000FF800002400003FFFF0050
:100A73000000003C0000FF000002400007FFFFE011
:100A8300000000FE0000FE000002400007FFFFFF21
:100A93008001FFFE0000F8000002400007FFFFFF97
:100AA300FFFFFFFE0001F0000002400007FFF87F98
:100AB300FFFFFFFE0003C0000002400007FFE00746
:100AC300FFFFFFFC000700000002400007FF800F4C
:100AD300FFFFFFF0001C00000002400003FF001FA7
:100AE300FFFFFFE0006000000002400003FE000F74
:100AF300FFFFFF80010000000002400001FC00072F
:100B0300FFFFFC000000000000024000007C000129
:100B1300FFFFC0000000000000024000001E0000B4
:100B23000BE000000000000000024000000780000E
:100B33000000000000000000000240000000600010
:100B43000000000000000000000240000000000060
:100B53000000000000000000000240000000000050
:100B63000000000000000000000240000000000040
:100B730000000000000000000002400007C2102136
:100B8300F1F888008060F8F8000240000442102168
:100B93001108C80080608888000240000402102108
:100BA3000108C800809088800002400007021021DD
:100BB3000108E800809088E00002400001C2102193
:100BC3000108A8008090F83800024000004210217C
:100BD3000108B800809088080002400000421021FC
:100BE3000108980081F8880800024000044210219F
:100BF30011089800810888880002400007C21F215D
:100C0300F1F88800F908F8F800024000000000003D
:100C1300000000000000000000024000000000008F
:100C2300000000000000000000024000000000007F
:100C3300000000000000000000024000000000006F
:100C4300000000000000000000024000000000005F
:100C5300000000000000000000024000000000004F
:100C6300000000000000000000024000000000003F
:100C7300000000000000000000024000000000002F
:100C8300000000000000000000024000000000001F
:100C9300000000000000000000024000000000000F
:100CA30000000000000000000002400000000000FF
:100CB30000000000000000000002400000000000EF
:100CC30000000000000000000002400000000000DF
:100CD30000000000000000000002400000000000CF
:100CE30000000000000000000002400000000000BF
:100CF30000000000000000000002400000000000AF
:100D0300000000000000000000024000000000009E
:100D1300000000000000000000024000000000008E
:100D230000000000000000000002407FFFFFFFFF03
:100D3300FFFFFFFFFFFFFFFFFC024040000000003A
:100D4300000000000000000004024040000000001A
:100D5300000000000000000004024040000000000A
:100D630000000000000000000402404000000000FA
:100D730000000000000000000402404000000000EA
:100D830000000000000000000402404000000000DA
:100D930000000000000000000402404000000000CA
:100DA30000000000000000000402404000000000BA
:100DB30000000000000000000402404000000000AA
:100DC300000000000000000004024040000000009A
:100DD300000000000000000004024040000000008A
:100DE300000000000000000004024040000000007A
:100DF300000000000000000004024040000000006A
:100E03000000000000000000040240400000000059
:100E13000000000000000000040240400000000049
:100E23000000000000000000040240400000000039
:100E33000000000000000000040240400000000029
:100E43000000000000000000040240400000000019
:100E53000000000000000000040240400000000009
:100E630000000000000000000402404000000000F9
:100E730000000000000000000402404000000000E9
:100E830000000000000000000402404000000000D9
:100E930000000000000000000402404000000000C9
:100EA30000000000000000000402404000000000B9
:100EB30000000000000000000402404000000000A9
:100EC3000000000000000000040240400000000099
:100ED3000000000000000000040240400000000089
:100EE3000000000000000000040240400000000079
:100EF3000000000000000000040240400000000069
:100F03000000000000000000040240400000000058
:100F13000000000000000000040240400000000048
:100F23000000000000000000040240400000000038
:100F33000000000000000000040240400000000028
:100F43000000000000000000040240400000000018
:100F53000000000000000000040240400000000008
:100F630000000000000000000402404000000000F8
:100F730000000000000000000402404000000000E8
:100F830000000000000000000402404000000000D8
:100F930000000000000000000402404000000000C8
:100FA30000000000000000000402404000000000B8
:100FB30000000000000000000402404000000000A8
:100FC3000000000000000000040240400000000098
:100FD3000000000000000000040240400000000088
:100FE3000000000000000000040240400000000078
:100FF3000000000000000000040240400000000068
:1010030000000000000000000402407FFFFFFFFF1C
:10101300FFFFFFFFFFFFFFFFFC0240000000000097
:10102300000000000000000000024000000000007B
:10103300000000000000000000024000000000006B
:10104300000000000000000000024000000000005B
:10105300000000000000000000024000000000004B
:10106300000000000000000000024000000000003B
:10107300000000000000000000024000000000002B
:10108300000000000000000000024000000000001B
:10109300000000000000000000027FFFFFFFFFFFD1
:1010A300FFFFFFFFFFFFFFFFFFFE00000000000048
:1010B300000000000000000000000020505020C08D
:1010C30060601040000000000000702070F810F80D
:1010D30030F870700000080080707070F070E0F8F5
:1010E300F8708870388880888870F070F078F88895
:1010F30088888888F870007020004000800008000D
:1011030030008020108060000000000000004000DC
:1011130000000000003020600000000000000020FC
:10112300505078C8902020202020000000008860C4
:1011330088103080400888886060100040880888E4
:101143008888908080888820109080D888888888B4
:1011530088802088888888880840001050002000F4
:101163008000080048788000008020000000000014
:10117300000040000000000000402010400000007C
:101183000000002050F88010A0404010A82000006C
:1011930000089820082050F080108888606020F8AC
:1011A30020080888888088808080882010A080A8F4
:1011B300C888888888802088888850881040801054
:1011C30088001070B07068704088B060309020D094
:1011D300B070F068B070E08888888888F840201084
:1011E300A8000000000000200050702040004010C4
:1011F30070F800F80010A82010109008F020707804
:101203000000400010106888F08088F0F0B8F820E3
:1012130010C080A8A888F088F070208888A8205083
:101223002040401000000008C8809888E088C8204B
:1012330010A020A8C8888898C880408888885088CB
:1012430010802008100000000000000000F8084093
:10125300A8004010A82060000020C8202008F8083B
:1012630088408808606020F82020A8F8888088805B
:101273008088882010A08088988880A8A00820886B
:1012830088A850204040201000000078888088F80B
:101293004078882010C020A88888F0788070408823
:1012A30088A82078204020100000000000000000E3
:1012B3000050F098900020202020200060408820DB
:1012C3004088108888408810602010004000A8885B
:1012D30088889080808888209090808888888090F3
:1012E3009008208850A888208040101000000088B3
:1012F300888888804008882090A020888888800873
:101303008008489850A85008404020100000000072
:10131300000000200050201868001040000040002A
:1013230060807070F870107070407060004008004A
:1013330080207088F070E0F8807088706088F8888A
:101343008870806888F0207020508820F8700870BA
:1013530000FC0078F070787040708870609070883E
:101363008870800880F0306820508870F8302060E2
:10137300000000000000000000000000000000006A
:10138300000000000000000000000000000000005A
:10139300000000000000000000000000000000004A
:1013A300000000000000000000000000000000003A
:1013B300000000000000000000000000000000002A
:1013C300000000000000000000000000000000001A
:0A13D3000000000000000000000010
:00000001FF
