:020000040000FA
:100000000205D2AB07AA06120A288F828E83120A33
:1000100028C3EF9582FFEE9583FEC3EF9BEE9A40D7
:02002000ED22CF
:0700230002065E75A64022F3
:07002B000207AB439810220D
:100033000204AD75A20B43A14053F8F343F8012228
:10004300020076EF540FC454F0FEEF54F0C4540F83
:100053004EFF543325E025E0FEEF54CC1313543FF9
:0F0063004EFF545525E0FEEF54AAC3134EFF2263
:10007300020AB3C0D075D000C007AFA7D20E75A7D0
:10008300108FA7D007D0D032020B2BE56D2461F877
:10009300E6056D22785E3007027861E475F001129F
:1000A300059C0205442000EB7F2ED2008018EF54FC
:1000B3000F2490D43440D4FF30040BEF24BFB41A80
:1000C3000050032461FFE56E6002156E0571E57152
:1000D3007002057030070D785EE475F00112059C1F
:1000E300EF02058A020B277403D2078003E4C207D9
:1000F300F56D8B5E8A5F8960E4F56EF570F571E5E9
:100103006E60077F201200C980F5756FFFC201C2C0
:1001130000C202C203C205C206C208120097FF70E2
:100123000D3007057F001200DAAF71AE7022B425DF
:100133005FC2D5C204120097FF24D0B40A00501A3C
:1001430075F00A786E30D50508B6FF0106C6A426F9
:10015300F620D5047002D20380D924CFB41A00EF5D
:100163005004C2E5D2040202DAD20180C6D2008072
:10017300C0D20280BCD2D580BAD20580B47F20120F
:1001830000C92002077401B56E0040F112008EFF12
:100193001200C9020102D208D206809512008EFB1A
:1001A30012008EFA12008EF94A4B700679AB7A036D
:1001B3007BFF20022EE56E602A7E008E827583000F
:1001C30012055D60060EEE656F70F0C2D5EBC0E000
:1001D300EAC0E0E9C0E0EE120321D0E0F9D0E0FA92
:1001E300D0E0FB120544FF60AAEBC0E0EAC0E0E9FF
:1001F300C0E01200C9D0E02401F9D0E03400FAD005
:10020300E0FBE56F0460DCD56FD980877BFF7A0361
:10021300791DD202809C791080027908C206C20837
:100223008008D2D5790A8004790AC2D5E56F0470B3
:1002330002F56FE4FAFDFEFF12008EFC7B0820013D
:100243001312008EFD7B1030000A12008EFE120086
:100253008EFF7B20EC3382D592D55013C3E430005C
:10026300069FFFE49EFEE42001039DFDE49CFCE465
:10027300CBF8C201EC700CCFCECDCCE824F8F870EB
:10028300F38017C3EF33FFEE33FEED33FDEC33FCA6
:10029300EB33FB994002FB0FD8E9EB300105F8D0B3
:1002A300E0C448B201C0E00AEC4D4E4F78207B0019
:1002B30070C2EAB56F0040BCC0E0120323D0F0D097
:1002C300E0200104C4C0E0C4B201C0F01200B2D007
:1002D300F0D5F0EB0201021205AC019F530219584D
:1002E30001704C016C42021D4F0225440225490155
:1002F3008543022B55020F46020F45020F4703CBDE
:100303005001742D01782E019B2B017C2301992030
:1003130003B42A013448000001933F3F3F00790AA8
:10032300A2D5200314300509B910020404B9080149
:1003330004A2D52006025001042002689202B56E81
:10034300005034C0E07F203003197F30A2027206D0
:100353007205500F12037AC202C206C205C2087F99
:1003630030800F300503E9C0E01200C9300503D027
:10037300E0F9D0E0B56ECC3005177F30B9100C1220
:1003830000C97F583004077F788003B9080312003F
:10039300C93002057F2D0200C97F202008F87F2B7A
:1003A3002006F322920280CF286E756C6C2900D24E
:1003B3000112008E3001F8C201786E30D50108F6C3
:1003C3000201342D5043495812008E2403B4050012
:1003D3004001E49003C6931200BA743A1200BAD2F1
:1003E30003756E040202198F648D658B66AB67AA71
:1003F30068A96912054470030204ACF56AC36480FA
:1004030094A04009D3E56A648094FE4003756A2092
:10041300E565D394784002807CAF6AEF3395E0FEC4
:1004230075F064E566A42FF582E5F03EF583E58279
:10043300240EF582E5833413F583E493F9E565131C
:100443001313541F2564FDF8C000E6FA08E6FBE524
:10045300655407FCE47EFFA804088005CEC313CED1
:1004630013D8F9F4FFEEF45AFEEB5FD000A60608AA
:10047300F6A805C000E6FA08E6FBE9FEE4A80408CE
:100483008005CEC313CE13D8F9FFEA4EFEEB4FD04F
:1004930000A60608F674012569F569E43568F56870
:1004A30074062565F5650203F022C0E0C0F0C08341
:1004B300C082C0D075D000C000C001C002C003C05C
:1004C30004C005C006C00775A720E5F854F0F4443E
:1004D3000F52F8AF9BEF30E34DE5086031E5A12003
:1004E300E02C300A13850C82850B83E5A3F0050C01
:1004F300E50C7007050B800385A35DD5080D300C53
:1005030005300902D2FA120A68800385080AE50950
:10051300601430F911300B09A80DE2F5A3050D8025
:100523000375A3001509D007D006D005D004D00366
:10053300D002D001D000D0D0D082D083D0F0D0E090
:1005430032BB010689828A83E0225002E722BBFE86
:1005530002E32289828A83E49322BB010CE5822988
:10056300F582E5833AF583E0225006E92582F8E631
:1005730022BBFE06E92582F8E222E58229F582E51F
:10058300833AF583E49322BB010689828A83F022AE
:100593005002F722BBFE01F322FAE6FB0808E6F954
:1005A30025F0F618E6CA3AF622D083D082F8E4930F
:1005B3007012740193700DA3A393F8740193F582E1
:1005C3008883E4737402936860EFA3A3A380DF7846
:1005D3007FE4F6D8FD75818E0206190206D4E493F2
:1005E300A3F8E493A34003F68001F208DFF4802923
:1005F300E493A3F85407240CC8C333C4540F442012
:10060300C8834004F456800146F6DFE4800B010200
:100613000408102040809008DFE47E019360BCA3AF
:10062300FF543F30E509541FFEE493A360010ECF4E
:1006330054C025E060A840B8E493A3FAE493A3F878
:10064300E493A3C8C582C8CAC583CAF0A3C8C58238
:10065300C8CAC583CADFE9DEE780BEC0E0C0D07583
:10066300D000C000C007D29430981EE5377002F561
:1006730026C298859923E537C39420500CAF26747E
:10068300382FF8A6230537052630993CC299E5375C
:100693006401602EE537B52603752700AF2774384C
:1006A3002FF8E6F523E523C39461400DE523D394A6
:1006B3007A500674E02523F52385239905271537FA
:1006C3008006753700752201D007D000D0D0D0E066
:1006D30032120958120AC3C2A2C294D2AF7BFF7A64
:1006E3000979D27D0A1207427561FF756209756344
:1006F300DF8537647B007A0079281200EA7B007A71
:100703000079287D1E1207427B007A0079387D46E6
:10071300120742E522B401D0E53760CCE523640D2E
:10072300600BE523640A6005E523B47EBBE4F52290
:10073300D2997BFF7A0979EE7D3212074280A98D27
:10074300618B5E8A5F896012098C8F63E4F562E5D1
:100753006290116E93FF747F2562F8A6070562E528
:1007630062B410EBE4F5627F7F7B707D101209F3B6
:10077300C007C374809563FFE49400C313EF13FDB4
:10078300855E67855F68856069D007AB621203EA9F
:10079300E5622561FF7B007A00797F12085C0562C0
:1007A300E562C3940840C022C0E0C0F0C083C082A9
:1007B300C0D075D000C000C001C002C003C004C0D7
:1007C30005C006C00753C87F53C8FBE510B4011228
:1007D3007510027F0085115C7B02E4FDFC12080AA0
:1007E300800AE510B40305C2A6751000D007D00631
:1007F300D005D004D003D002D001D000D0D0D08215
:10080300D083D0F0D0E032855C08855C09855C0A32
:100813008F0D8C0B8D0CEB13920AEBA2E1920BAFB5
:10082300A775A720200D03120AA2439A0453F80FB9
:10083300539BEF439A08300C05300902C2FA30F992
:1008430015E5096011300B09A80DE2F5A3050D802C
:1008530003E4F5A315098FA7228F648B658A668944
:10086300677F801209B18F68E56404FF1200468F29
:1008730069E4FFAB65AA66A9678F827583001205D9
:100883005DFE746A2FF8A6060FBF10E7E4F57AF54C
:100893007BFB7A0079687D1402089E8B7C8A7D89B4
:1008A3007EE51070FC7510018D11E4FFEFC39D50C0
:1008B30018AB7CAA7DA97E8F8275830012055DFE2D
:1008C30074002FF8EEF20F80E3AFA7E4F5A775CF1E
:1008D300FF75CEF4D2A643C8048FA722020E0000F0
:1008E30001100001110002120000C109C10CC10D69
:1008F300C10AC10B010800010900010A00010D0032
:10090300020B00000137000126000127000122012C
:1009130001230002240000C10E008F5F8D60E5609B
:1009230060057560FF8003E4F5607F801209B18F75
:1009330061E55F04FF1200468F62E4FF74632FF8E2
:10094300A6600FBF10F6E4F573F574FB7A007961C6
:100953007D1402089E85A75E120ADE120AFC120BA2
:1009630019120026120B20120AF2120B10120A7C23
:10097300120B06120A0F120A3E120AD11200361285
:10098300002E120AE8855EA7228B648A658966E4D5
:10099300FFAB64AA65A966AE070F8E82758300124A
:1009A300055D70ED1FEF75F006A42402FF228F7C16
:1009B300120A28C3EF950FFDEE950EFCD3ED94C8F4
:1009C300EC94004007437C408E0E8F0FAF7C22488F
:1009D300454C4C4F20465249454E4400627566666D
:1009E30065722073697A6520256400696A696A0003
:1009F300ED131313541FFEEB131313541FFDEEC318
:100A03009D5008EF2EF8E4F60E80EC22E591540495
:100A13005391FB7595F87594067593F87592064393
:100A23009104429122AFA775A71053E67FAD13AC93
:100A33001243E6808FA7AE04AF052275A710E59891
:100A430054045398FB75A5FE75A468439804429813
:100A530022E4F55EE4FDAF5E12091D055EE55EC3AB
:100A6300948040F022751003AFA7E4F5A775CFFF7C
:100A730075CEFC43C8048FA722AF885388AF758D0A
:100A830096EF5440FEEF54104E428822BF0A0830BE
:100A930099FDC29975990D3099FDC2998F9922E5F7
:100AA300A1A2E6920CE5F8540C24FF9209D20D2280
:100AB300C0E053917F0513E51370020512D0E032B5
:100AC300C2A6D2B47F0A7E00120003020A54E4F5E0
:100AD300A7758E0C75892043885022E4F5A7759776
:100AE300DE7597AD2275E68275F30475A8F022E4EE
:100AF300F5A775E34075E1032275A45075D40F750E
:100B0300FE0422E5C8540453C8FB42C822E4F5A9F5
:100B1300E5A930E7FB2275A50375D5FE2275A7204D
:100B2300759C1022120A8F22C29F3200000000001F
:100B330000000000000000000000007FFFFFFFFF37
:100B4300FFFFFFFFFFFFFFFFFFFFFE40000000006E
:100B53000000000000000000000002400000000050
:100B63000000000000000000000002400000000040
:100B73000000000000000000000002400000000030
:100B83000000000000000000000002400000000020
:100B93000000000000000000000002400000000010
:100BA3000000000000000000000002400000000000
:100BB30000000000000000000000024000000000F0
:100BC30000000000000000000000024000000000E0
:100BD30000000000000000000000024000000000D0
:100BE3000000800000000018000002400000000028
:100BF30000080007FFE000060000024000000000BC
:100C030000C0007FFFFE00038000024000000000E0
:100C1300070003FFFFFF0003E000024000000000A5
:100C230038001FFFFFFF8003E000024000000001C7
:100C3300E0003FFFFFFF8003F00002400000000FD1
:100C43008000FFFFFFFF8007F80002400000003E26
:100C53000001FFFFFFFE001FF8000240000000FC40
:100C63000003FFFFFFFF80FFF8000240000003F8CE
:100C73000007FFFFFFFFFFFFF8000240000007F03F
:100C83000007FFF8003FFFFFF800024000001FF0DD
:100C93000007F00000007FFFF800024000003FF073
:100CA3000003C00000000FFFF000024000007FF0CF
:100CB3000001F000000003FFE00002400000FFF825
:100CC30000007FFF800001FFC00002400001FFFC25
:100CD3000000027FF00000FF800002400003FFFFDE
:100CE300000000003C0000FF000002400007FFFF7F
:100CF300E0000000FE0000FE000002400007FFFFCE
:100D0300FF8001FFFE0000F8000002400007FFFF24
:100D1300FFFFFFFFFE0001F0000002400007FFF8A5
:100D23007FFFFFFFFE0003C0000002400007FFE05B
:100D330007FFFFFFFC000700000002400007FF80E1
:100D43000FFFFFFFF0001C00000002400003FF0044
:100D53001FFFFFFFE0006000000002400003FE00F1
:100D63000FFFFFFF80010000000002400001FC00B4
:100D730007FFFFFC000000000000024000007C00B1
:100D830001FFFFC0000000000000024000001E0041
:100D9300000BE0000000000000000240000007809C
:100DA300000000000000000000000240000000609E
:100DB30000000000000000000000024000000000EE
:100DC30000000000000000000000024000000000DE
:100DD30000000000000000000000024000000000CE
:100DE3000000000000000000000002400007C210E5
:100DF30021F1F888008060F8F800024000044210F6
:100E0300211108C800806088880002400004021095
:100E1300210108C80080908880000240000702106A
:100E2300210108E800809088E00002400001C21020
:100E3300210108A8008090F8380002400000421009
:100E4300210108B800809088080002400000421089
:100E5300210108980081F88808000240000442102C
:100E63002111089800810888880002400007C21FEA
:100E730021F1F88800F908F8F800024000000000AA
:100E8300000000000000000000000240000000001D
:100E9300000000000000000000000240000000000D
:100EA30000000000000000000000024000000000FD
:100EB30000000000000000000000024000000000ED
:100EC30000000000000000000000024000000000DD
:100ED30000000000000000000000024000000000CD
:100EE30000000000000000000000024000000000BD
:100EF30000000000000000000000024000000000AD
:100F0300000000000000000000000240000000009C
:100F1300000000000000000000000240000000008C
:100F2300000000000000000000000240000000007C
:100F3300000000000000000000000240000000006C
:100F4300000000000000000000000240000000005C
:100F5300000000000000000000000240000000004C
:100F6300000000000000000000000240000000003C
:100F7300000000000000000000000240000000002C
:100F8300000000000000000000000240000000001C
:100F93000000000000000000000002407FFFFFFF90
:100FA300FFFFFFFFFFFFFFFFFFFC024040000000C9
:100FB30000000000000000000004024040000000A8
:100FC3000000000000000000000402404000000098
:100FD3000000000000000000000402404000000088
:100FE3000000000000000000000402404000000078
:100FF3000000000000000000000402404000000068
:101003000000000000000000000402404000000057
:101013000000000000000000000402404000000047
:101023000000000000000000000402404000000037
:101033000000000000000000000402404000000027
:101043000000000000000000000402404000000017
:101053000000000000000000000402404000000007
:1010630000000000000000000004024040000000F7
:1010730000000000000000000004024040000000E7
:1010830000000000000000000004024040000000D7
:1010930000000000000000000004024040000000C7
:1010A30000000000000000000004024040000000B7
:1010B30000000000000000000004024040000000A7
:1010C3000000000000000000000402404000000097
:1010D3000000000000000000000402404000000087
:1010E3000000000000000000000402404000000077
:1010F3000000000000000000000402404000000067
:101103000000000000000000000402404000000056
:101113000000000000000000000402404000000046
:101123000000000000000000000402404000000036
:101133000000000000000000000402404000000026
:101143000000000000000000000402404000000016
:101153000000000000000000000402404000000006
:1011630000000000000000000004024040000000F6
:1011730000000000000000000004024040000000E6
:1011830000000000000000000004024040000000D6
:1011930000000000000000000004024040000000C6
:1011A30000000000000000000004024040000000B6
:1011B30000000000000000000004024040000000A6
:1011C3000000000000000000000402404000000096
:1011D3000000000000000000000402404000000086
:1011E3000000000000000000000402404000000076
:1011F3000000000000000000000402404000000066
:101203000000000000000000000402404000000055
:101213000000000000000000000402404000000045
:101223000000000000000000000402404000000035
:101233000000000000000000000402404000000025
:101243000000000000000000000402404000000015
:101253000000000000000000000402404000000005
:1012630000000000000000000004024040000000F5
:101273000000000000000000000402407FFFFFFFA9
:10128300FFFFFFFFFFFFFFFFFFFC02400000000026
:101293000000000000000000000002400000000009
:1012A30000000000000000000000024000000000F9
:1012B30000000000000000000000024000000000E9
:1012C30000000000000000000000024000000000D9
:1012D30000000000000000000000024000000000C9
:1012E30000000000000000000000024000000000B9
:1012F30000000000000000000000024000000000A9
:1013030000000000000000000000027FFFFFFFFF5D
:10131300FFFFFFFFFFFFFFFFFFFFFE0000000000D6
:1013230000000000000000000000000020505020DA
:10133300C060601040000000000000702070F810D2
:10134300F830F870700000080080707070F070E082
:10135300F8F8708870388880888870F070F078F8B2
:101363008888888888F87000702000400080000812
:10137300003000802010806000000000000000406A
:1013830000000000000030206000000000000000AA
:1013930020505078C8902020202020000000008892
:1013A300608810308040088888606010004088089A
:1013B300888888908080888820109080D888888842
:1013C30088888020888888888808400010500020FA
:1013D30000800008004878800000802000000000A2
:1013E300000000400000000000004020104000000A
:1013F300000000002050F88010A0404010A82000FA
:101403000000089820082050F08010888860602031
:10141300F820080888888088808080882010A08031
:10142300A8C8888888888020888888508810408049
:101433001088001070B07068704088B060309020E1
:10144300D0B070F068B070E08888888888F8402051
:1014530010A8000000000000200050702040004051
:101463001070F800F80010A82010109008F02070F9
:10147300780000400010106888F08088F0F0B8F819
:101483002010C080A8A888F088F070208888A82041
:10149300502040401000000008C8809888E088C8A9
:1014A3002010A020A8C8888898C8804088888850C1
:1014B3008810802008100000000000000000F808D9
:1014C30040A8004010A82060000020C8202008F891
:1014D3000888408808606020F82020A8F888808861
:1014E300808088882010A08088988880A8A0082001
:1014F3008888A85020404020100000007888808809
:10150300F84078882010C020A88888F07880704040
:101513008888A820782040201000000000000000E8
:10152300000050F098900020202020200060408888
:10153300204088108888408810602010004000A850
:101543008888889080808888209090808888888088
:10155300909008208850A888208040101000000038
:1015630088888888804008882090A0208888888080
:10157300088008489850A8500840402010000000F8
:1015830000000000200050201868001040000040B8
:101593000060807070F870107070407060004008D8
:1015A3000080207088F070E0F8807088706088F8A0
:1015B300888870806888F0207020508820F8700830
:1015C3007000FC0078F070787040708870609070E4
:1015D300888870800880F0306820508870F8302048
:1015E3006000000000000000000000000000000098
:1015F30000000000000000000000000000000000E8
:1016030000000000000000000000000000000000D7
:1016130000000000000000000000000000000000C7
:1016230000000000000000000000000000000000B7
:1016330000000000000000000000000000000000A7
:0B16430000000000000000000000009C
:00000001FF
