:020000040000FA
:100000000200BC85A70C12021D1201F71202271272
:10001000020A12022B850CA722C100020800050269
:0A0020000A000000D2AF20AFFD225D
:10002B0002002EC0E0C083C082C0D075D000C000DB
:10003B00C2CFE50A7053E50BB40700504C90004F4C
:10004B00F828287302006402006C02007602007A22
:10005B0002008202008602008ED294C295C2968064
:10006B0028C294D295C296C2AF801EC294800ED283
:10007B0094D295C2968012C294800AD294C295D221
:10008B00968006D294D295D296D3E50B9400E50ACE
:10009B0064809480500A050BE50B700A050A8006F4
:1000AB00750A00750B00D000D0D0D082D083D0E081
:1000BB0032787FE4F6D8FD758120020103020148F6
:1000CB00E493A3F8E493A34003F68001F208DFF472
:1000DB008029E493A3F85407240CC8C333C4540FEA
:1000EB004420C8834004F456800146F6DFE4800BBD
:1000FB000102040810204080900019E47E019360F7
:10010B00BCA3FF543F30E509541FFEE493A36001E9
:10011B000ECF54C025E060A840B8E493A3FAE49353
:10012B00A3F8E493A3C8C582C8CAC583CAF0A3C801
:10013B00C582C8CAC583CADFE9DEE780BE120003E9
:10014B00C2B4C2AFAF09AE081201B7C2B47F002070
:10015B0082027F01EF700C7F002083027F01EF7022
:10016B0002C20020821F20001CD2000509E5097085
:10017B00020508D39405E508648094804026E4F5D5
:10018B0008F509801F2083C52000C2D200E50915A0
:10019B000970021508C3E508648094805006750841
:1001AB00007509051200241200248098EE703CEFB4
:1001BB0014601614601A14601E1460221460262436
:1001CB00057028E4F5A9F5A92275A91075A91022C7
:1001DB0075A92075A9202275A93075A9302275A99A
:1001EB004075A9402275A95075A950227590FF75CD
:1001FB00A57075F2FF75D570E4F5EE75EDFF22E590
:10020B00C8540453C8FB75CB3875CA9E43C8044207
:10021B00C822E4F5A77597DE7597AD2275E34022EA
:04022B0075A8A022F0
:00000001FF
